{
  "contractName": "Counter",
  "abi": [
    {
      "anonymous": false,
      "inputs": [
        {
          "indexed": false,
          "internalType": "bytes",
          "name": "message",
          "type": "bytes"
        }
      ],
      "name": "LogChange",
      "type": "event"
    },
    {
      "inputs": [
        {
          "internalType": "int32",
          "name": "value",
          "type": "int32"
        }
      ],
      "name": "incrementCounter",
      "outputs": [],
      "stateMutability": "nonpayable",
      "type": "function"
    },
    {
      "inputs": [
        {
          "internalType": "int32",
          "name": "value",
          "type": "int32"
        }
      ],
      "name": "decrementCounter",
      "outputs": [],
      "stateMutability": "nonpayable",
      "type": "function"
    },
    {
      "inputs": [],
      "name": "getCounter",
      "outputs": [
        {
          "internalType": "int32",
          "name": "",
          "type": "int32"
        }
      ],
      "stateMutability": "view",
      "type": "function"
    },
    {
      "inputs": [
        {
          "internalType": "int32",
          "name": "value",
          "type": "int32"
        }
      ],
      "name": "resetCounter",
      "outputs": [],
      "stateMutability": "payable",
      "type": "function"
    }
  ],
  "bytecode": "0x608060405260056000806101000a81548163ffffffff021916908360030b63ffffffff16021790555034801561003457600080fd5b506104d4806100446000396000f3fe60806040526004361061003f5760003560e01c806316263da6146100445780635050393f146100825780637e1c815c146100b35780638ada066e146100f1575b600080fd5b34801561005057600080fd5b506100806004803603602081101561006757600080fd5b81019080803560030b906020019092919050505061011f565b005b6100b16004803603602081101561009857600080fd5b81019080803560030b906020019092919050505061024c565b005b3480156100bf57600080fd5b506100ef600480360360208110156100d657600080fd5b81019080803560030b906020019092919050505061035b565b005b3480156100fd57600080fd5b50610106610488565b604051808260030b815260200191505060405180910390f35b806000808282829054906101000a900460030b0192506101000a81548163ffffffff021916908360030b63ffffffff1602179055507eb7da6a10bd774741cba4f65c445e94b24ed6d052102f9b48ec81cdc4f68c9d60008054906101000a900460030b60405160200180807f436f756e746572206973206e6f773a20000000000000000000000000000000008152506010018260030b60e01b81526004019150506040516020818303038152906040526040518080602001828103825283818151815260200191508051906020019080838360005b8381101561020f5780820151818401526020810190506101f4565b50505050905090810190601f16801561023c5780820380516001836020036101000a031916815260200191505b509250505060405180910390a150565b348160030b1461025b57600080fd5b806000806101000a81548163ffffffff021916908360030b63ffffffff1602179055507eb7da6a10bd774741cba4f65c445e94b24ed6d052102f9b48ec81cdc4f68c9d60405160200180807f436f756e7465722069732072657365742100000000000000000000000000000081525060110190506040516020818303038152906040526040518080602001828103825283818151815260200191508051906020019080838360005b8381101561031e578082015181840152602081019050610303565b50505050905090810190601f16801561034b5780820380516001836020036101000a031916815260200191505b509250505060405180910390a150565b806000808282829054906101000a900460030b0392506101000a81548163ffffffff021916908360030b63ffffffff1602179055507eb7da6a10bd774741cba4f65c445e94b24ed6d052102f9b48ec81cdc4f68c9d60008054906101000a900460030b60405160200180807f436f756e746572206973206e6f773a20000000000000000000000000000000008152506010018260030b60e01b81526004019150506040516020818303038152906040526040518080602001828103825283818151815260200191508051906020019080838360005b8381101561044b578082015181840152602081019050610430565b50505050905090810190601f1680156104785780820380516001836020036101000a031916815260200191505b509250505060405180910390a150565b60008060009054906101000a900460030b90509056fea264697066735822122043eb8a7db233a8ababd4b1cf0e14cd6634a480a08056502cbbe36b1e7b4c233364736f6c63430007010033",
  "source": "pragma solidity ^0.7.0;\n\ncontract Counter {\n    int32 count = 5;\n\n    event LogChange(bytes message);\n\n    function incrementCounter(int32 value) public {\n        count += value;\n        emit LogChange(abi.encodePacked(\"Counter is now: \", count));\n    }\n\n    function decrementCounter(int32 value) public {\n        count -= value;\n        emit LogChange(abi.encodePacked(\"Counter is now: \", count));\n    }\n\n    function getCounter() view public returns(int32) {\n        return count;\n    }\n\n    function resetCounter(int32 value) payable public {\n        require(uint256(value) == msg.value);\n        count = value;\n        emit LogChange(abi.encodePacked(\"Counter is reset!\"));\n    }\n}\n",
  "sourcePath": "/Users/loredana/ETH/statebridge/contracts/contracts/Counter.sol",
  "compiler": {
    "name": "solc",
    "version": "0.7.1+commit.f4a555be.Emscripten.clang"
  },
  "schemaVersion": "3.0.23",
  "updatedAt": "2020-11-21T16:00:00.145Z",
  "devdoc": {
    "kind": "dev",
    "methods": {},
    "version": 1
  },
  "userdoc": {
    "kind": "user",
    "methods": {},
    "version": 1
  }
}