{
  "contractName": "EthereumClient",
  "abi": [
    {
      "inputs": [
        {
          "internalType": "uint256",
          "name": "nonce",
          "type": "uint256"
        },
        {
          "internalType": "uint256",
          "name": "gasPrice",
          "type": "uint256"
        },
        {
          "internalType": "uint256",
          "name": "gasLimit",
          "type": "uint256"
        },
        {
          "internalType": "uint256",
          "name": "value",
          "type": "uint256"
        },
        {
          "internalType": "address",
          "name": "to",
          "type": "address"
        },
        {
          "internalType": "bytes",
          "name": "data",
          "type": "bytes"
        },
        {
          "internalType": "uint8",
          "name": "v",
          "type": "uint8"
        },
        {
          "internalType": "bytes32",
          "name": "r",
          "type": "bytes32"
        },
        {
          "internalType": "bytes32",
          "name": "s",
          "type": "bytes32"
        }
      ],
      "name": "getSignedTransaction",
      "outputs": [
        {
          "internalType": "bytes",
          "name": "signedTransaction",
          "type": "bytes"
        }
      ],
      "stateMutability": "pure",
      "type": "function"
    },
    {
      "inputs": [
        {
          "internalType": "bytes",
          "name": "signedTransaction",
          "type": "bytes"
        }
      ],
      "name": "getTransactionHash",
      "outputs": [
        {
          "internalType": "bytes32",
          "name": "hash",
          "type": "bytes32"
        }
      ],
      "stateMutability": "pure",
      "type": "function"
    },
    {
      "inputs": [
        {
          "components": [
            {
              "internalType": "bytes32",
              "name": "hash",
              "type": "bytes32"
            },
            {
              "internalType": "bytes32",
              "name": "parentHash",
              "type": "bytes32"
            },
            {
              "internalType": "uint256",
              "name": "nonce",
              "type": "uint256"
            },
            {
              "internalType": "uint256",
              "name": "timestamp",
              "type": "uint256"
            },
            {
              "internalType": "bytes32",
              "name": "ommersHash",
              "type": "bytes32"
            },
            {
              "internalType": "address",
              "name": "miner",
              "type": "address"
            },
            {
              "internalType": "bytes32",
              "name": "logsBloom",
              "type": "bytes32"
            },
            {
              "internalType": "uint256",
              "name": "difficulty",
              "type": "uint256"
            },
            {
              "internalType": "uint256",
              "name": "totalDifficulty",
              "type": "uint256"
            },
            {
              "internalType": "bytes32",
              "name": "extraData",
              "type": "bytes32"
            },
            {
              "internalType": "uint256",
              "name": "number",
              "type": "uint256"
            },
            {
              "internalType": "uint256",
              "name": "gasLimit",
              "type": "uint256"
            },
            {
              "internalType": "uint256",
              "name": "gasUsed",
              "type": "uint256"
            },
            {
              "internalType": "bytes32",
              "name": "mixHash",
              "type": "bytes32"
            },
            {
              "internalType": "bytes32",
              "name": "stateRoot",
              "type": "bytes32"
            },
            {
              "internalType": "bytes32",
              "name": "transactionsRoot",
              "type": "bytes32"
            },
            {
              "internalType": "bytes32",
              "name": "receiptsRoot",
              "type": "bytes32"
            }
          ],
          "internalType": "struct EthereumClient.BlockHeader",
          "name": "header",
          "type": "tuple"
        }
      ],
      "name": "getBlockHash",
      "outputs": [
        {
          "internalType": "bytes",
          "name": "",
          "type": "bytes"
        }
      ],
      "stateMutability": "pure",
      "type": "function"
    },
    {
      "inputs": [
        {
          "internalType": "bytes32",
          "name": "codehash",
          "type": "bytes32"
        },
        {
          "internalType": "bytes32",
          "name": "blockhash",
          "type": "bytes32"
        }
      ],
      "name": "checkCodeHash",
      "outputs": [
        {
          "internalType": "bool",
          "name": "isFromBlock",
          "type": "bool"
        }
      ],
      "stateMutability": "pure",
      "type": "function"
    }
  ],
  "bytecode": "0x608060405234801561001057600080fd5b50610fb2806100206000396000f3fe608060405234801561001057600080fd5b506004361061004c5760003560e01c80635599986e146100515780639ea9c25c14610081578063a2deadbd146100b1578063bee02b17146100e1575b600080fd5b61006b60048036038101906100669190610a69565b610111565b6040516100789190610d8c565b60405180910390f35b61009b60048036038101906100969190610ae6565b610119565b6040516100a89190610dc2565b60405180910390f35b6100cb60048036038101906100c69190610aa5565b610339565b6040516100d89190610da7565b60405180910390f35b6100fb60048036038101906100f69190610b10565b61034a565b6040516101089190610dc2565b60405180910390f35b600092915050565b60608061014883602001516040516020016101349190610c8d565b604051602081830303815290604052610359565b61015584604001516103b9565b61016285606001516103b9565b61018e866080015160405160200161017a9190610c8d565b604051602081830303815290604052610359565b61019b8760a001516103d3565b6101c78860c001516040516020016101b39190610c8d565b604051602081830303815290604052610359565b6101d48960e001516103b9565b6040516020016101ea9796959493929190610ca8565b6040516020818303038152906040529050806102298461012001516040516020016102159190610c8d565b604051602081830303815290604052610359565b6102378561014001516103b9565b6102458661016001516103b9565b6102538761018001516103b9565b610280886101a0015160405160200161026c9190610c8d565b604051602081830303815290604052610359565b6102ad896101c001516040516020016102999190610c8d565b604051602081830303815290604052610359565b6102da8a6101e001516040516020016102c69190610c8d565b604051602081830303815290604052610359565b6103078b61020001516040516020016102f39190610c8d565b604051602081830303815290604052610359565b60405160200161031f99989796959493929190610d0d565b604051602081830303815290604052905080915050919050565b600081805190602001209050919050565b60609998505050505050505050565b6060806001835114801561038b575060808360008151811061037757fe5b602001015160f81c60f81b60f81c60ff1611155b15610398578290506103b0565b6103ad6103a784516080610412565b84610624565b90505b80915050919050565b60606103cc6103c7836106ae565b610359565b9050919050565b6060806040518374140000000000000000000000000000000000000000186014820152603481016040528091505061040a81610359565b915050919050565b60608060388410156104c357600167ffffffffffffffff8111801561043657600080fd5b506040519080825280601f01601f1916602001820160405280156104695781602001600182028036833780820191505090505b50905082840160001b601f6020811061047e57fe5b1a60f81b8160008151811061048f57fe5b60200101907effffffffffffffffffffffffffffffffffffffffffffffffffffffffffffff1916908160001a90535061061a565b600080600190505b60008187816104d657fe5b04146104f0578180600101925050610100810290506104cb565b6001820167ffffffffffffffff8111801561050a57600080fd5b506040519080825280601f01601f19166020018201604052801561053d5781602001600182028036833780820191505090505b50925060378583010160001b601f6020811061055557fe5b1a60f81b8360008151811061056657fe5b60200101907effffffffffffffffffffffffffffffffffffffffffffffffffffffffffffff1916908160001a905350600190505b818111610617576101008183036101000a87816105b357fe5b04816105bb57fe5b0660001b601f602081106105cb57fe5b1a60f81b8382815181106105db57fe5b60200101907effffffffffffffffffffffffffffffffffffffffffffffffffffffffffffff1916908160001a905350808060010191505061059a565b50505b8091505092915050565b6060806040519050835180825260208201818101602087015b8183101561065a578051835260208301925060208101905061063d565b50855192508351830184528091508282019050602086015b8183101561068f5780518352602083019250602081019050610672565b50601f19601f8851850115830101166040525050508091505092915050565b606080602067ffffffffffffffff811180156106c957600080fd5b506040519080825280601f01601f1916602001820160405280156106fc5781602001600182028036833780820191505090505b50905082602082015260005b602081101561076657600060f81b82828151811061072257fe5b602001015160f81c60f81b7effffffffffffffffffffffffffffffffffffffffffffffffffffffffffffff19161461075957610766565b8080600101915050610708565b60608160200367ffffffffffffffff8111801561078257600080fd5b506040519080825280601f01601f1916602001820160405280156107b55781602001600182028036833780820191505090505b50905060005b8151811015610829578383806001019450815181106107d657fe5b602001015160f81c60f81b8282815181106107ed57fe5b60200101907effffffffffffffffffffffffffffffffffffffffffffffffffffffffffffff1916908160001a90535080806001019150506107bb565b50809350505050919050565b60008135905061084481610f20565b92915050565b60008135905061085981610f37565b92915050565b600082601f83011261087057600080fd5b813561088361087e82610e11565b610de4565b9150808252602083016020830185838301111561089f57600080fd5b6108aa838284610ec3565b50505092915050565b600061022082840312156108c657600080fd5b6108d1610220610de4565b905060006108e18482850161084a565b60008301525060206108f58482850161084a565b602083015250604061090984828501610a3f565b604083015250606061091d84828501610a3f565b60608301525060806109318482850161084a565b60808301525060a061094584828501610835565b60a08301525060c06109598482850161084a565b60c08301525060e061096d84828501610a3f565b60e08301525061010061098284828501610a3f565b610100830152506101206109988482850161084a565b610120830152506101406109ae84828501610a3f565b610140830152506101606109c484828501610a3f565b610160830152506101806109da84828501610a3f565b610180830152506101a06109f08482850161084a565b6101a0830152506101c0610a068482850161084a565b6101c0830152506101e0610a1c8482850161084a565b6101e083015250610200610a328482850161084a565b6102008301525092915050565b600081359050610a4e81610f4e565b92915050565b600081359050610a6381610f65565b92915050565b60008060408385031215610a7c57600080fd5b6000610a8a8582860161084a565b9250506020610a9b8582860161084a565b9150509250929050565b600060208284031215610ab757600080fd5b600082013567ffffffffffffffff811115610ad157600080fd5b610add8482850161085f565b91505092915050565b60006102208284031215610af957600080fd5b6000610b07848285016108b3565b91505092915050565b60008060008060008060008060006101208a8c031215610b2f57600080fd5b6000610b3d8c828d01610a3f565b9950506020610b4e8c828d01610a3f565b9850506040610b5f8c828d01610a3f565b9750506060610b708c828d01610a3f565b9650506080610b818c828d01610835565b95505060a08a013567ffffffffffffffff811115610b9e57600080fd5b610baa8c828d0161085f565b94505060c0610bbb8c828d01610a54565b93505060e0610bcc8c828d0161084a565b925050610100610bde8c828d0161084a565b9150509295985092959850929598565b610bf781610e76565b82525050565b610c0681610e82565b82525050565b610c1d610c1882610e82565b610f05565b82525050565b6000610c2e82610e3d565b610c388185610e48565b9350610c48818560208601610ed2565b610c5181610f0f565b840191505092915050565b6000610c6782610e3d565b610c718185610e59565b9350610c81818560208601610ed2565b80840191505092915050565b6000610c998284610c0c565b60208201915081905092915050565b6000610cb4828a610c5c565b9150610cc08289610c5c565b9150610ccc8288610c5c565b9150610cd88287610c5c565b9150610ce48286610c5c565b9150610cf08285610c5c565b9150610cfc8284610c5c565b915081905098975050505050505050565b6000610d19828c610c5c565b9150610d25828b610c5c565b9150610d31828a610c5c565b9150610d3d8289610c5c565b9150610d498288610c5c565b9150610d558287610c5c565b9150610d618286610c5c565b9150610d6d8285610c5c565b9150610d798284610c5c565b91508190509a9950505050505050505050565b6000602082019050610da16000830184610bee565b92915050565b6000602082019050610dbc6000830184610bfd565b92915050565b60006020820190508181036000830152610ddc8184610c23565b905092915050565b6000604051905081810181811067ffffffffffffffff82111715610e0757600080fd5b8060405250919050565b600067ffffffffffffffff821115610e2857600080fd5b601f19601f8301169050602081019050919050565b600081519050919050565b600082825260208201905092915050565b600081905092915050565b6000610e6f82610e8c565b9050919050565b60008115159050919050565b6000819050919050565b600073ffffffffffffffffffffffffffffffffffffffff82169050919050565b6000819050919050565b600060ff82169050919050565b82818337600083830152505050565b60005b83811015610ef0578082015181840152602081019050610ed5565b83811115610eff576000848401525b50505050565b6000819050919050565b6000601f19601f8301169050919050565b610f2981610e64565b8114610f3457600080fd5b50565b610f4081610e82565b8114610f4b57600080fd5b50565b610f5781610eac565b8114610f6257600080fd5b50565b610f6e81610eb6565b8114610f7957600080fd5b5056fea264697066735822122073231957a39ca38fad2f4811c82bc302b0e57fb296be84b0c0b5f59eb4a9733564736f6c63430007010033",
  "source": "pragma solidity ^0.7.0;\npragma experimental ABIEncoderV2;\n\nimport \"./RLPEncode.sol\";\n\ncontract EthereumClient {\n    // using RLP for RLP.RLPItem;\n    // using RLP for RLP.Iterator;\n    // using RLP for bytes;\n\n    struct BlockHeader {\n        bytes32 hash;\n        bytes32 parentHash;\n        uint256 nonce;\n        uint256 timestamp;\n        bytes32 ommersHash;  // sha3Uncles\n        address miner;       // beneficiary\n        bytes32 logsBloom;  // OR of all transaction receipt Bloom filters ?\n        uint256 difficulty;\n        uint256 totalDifficulty;\n        bytes32 extraData;\n        uint256 number;\n        uint256 gasLimit;\n        uint256 gasUsed;\n        bytes32 mixHash;     // ?\n        bytes32 stateRoot;\n        bytes32 transactionsRoot;\n        bytes32 receiptsRoot;  // root hash of transaction receipts trie\n        // uint256 size; ?\n    }\n\n    struct AccountState {\n        uint256 nonce;\n        uint256 balance;\n        bytes32 storageRoot;\n        bytes32 codeHash;\n    }\n\n    // state trie: key-value ; address-rlp(AccountState)\n\n    struct Transaction {\n        uint256 nonce;\n        uint256 gasPrice;\n        uint256 gasLimit;\n        uint256 value;\n        address to;\n        bytes data;\n        uint8 v;\n        bytes32 r;\n        bytes32 s;\n    }\n\n    struct Log {\n        uint256 somth;\n    }\n\n    struct TransactionReceipt {\n        uint256 blockNumber;\n        bytes32 blockHash;\n        bytes32 transactionHash;\n        uint256 gasUsed;\n        uint256 cummulativeGasUsed;\n        Log[] logs;\n    }\n\n    function getSignedTransaction(\n        uint256 nonce,\n        uint256 gasPrice,\n        uint256 gasLimit,\n        uint256 value,\n        address to,\n        bytes memory data,\n        uint8 v,\n        bytes32 r,\n        bytes32 s\n    ) public pure returns (bytes memory signedTransaction) {\n\n    }\n\n    // keccak256(signedTransaction)\n    function getTransactionHash(bytes memory signedTransaction) public pure returns (bytes32 hash) {\n        hash = keccak256(signedTransaction);\n    }\n\n    function getBlockHash(BlockHeader memory header) public pure returns (bytes memory) { // (bytes32 hash) {\n        bytes memory rlpencoded = abi.encodePacked(\n            RLPEncode.encodeBytes(abi.encodePacked(header.parentHash)),\n            RLPEncode.encodeUint(header.nonce),\n            RLPEncode.encodeUint(header.timestamp),\n            RLPEncode.encodeBytes(abi.encodePacked(header.ommersHash)),\n            RLPEncode.encodeAddress(header.miner),\n            RLPEncode.encodeBytes(abi.encodePacked(header.logsBloom)),\n            RLPEncode.encodeUint(header.difficulty)\n        );\n        rlpencoded = abi.encodePacked(\n            rlpencoded,\n            RLPEncode.encodeBytes(abi.encodePacked(header.extraData)),\n            RLPEncode.encodeUint(header.number),\n            RLPEncode.encodeUint(header.gasLimit),\n            RLPEncode.encodeUint(header.gasUsed),\n            RLPEncode.encodeBytes(abi.encodePacked(header.mixHash)),\n            RLPEncode.encodeBytes(abi.encodePacked(header.stateRoot)),\n            RLPEncode.encodeBytes(abi.encodePacked(header.transactionsRoot)),\n            RLPEncode.encodeBytes(abi.encodePacked(header.receiptsRoot))\n        );\n        return rlpencoded;\n    }\n\n    function checkCodeHash(bytes32 codehash, bytes32 blockhash) pure public returns(bool isFromBlock) {\n\n\n\n\n\n    }\n}\n\n// block hash: 0x75738c30bcdfc1305f27cafaddf16c97de1d49f3665d22eb4e1ffd1f69d2aeed\n// state root: 0x6e0140db2a3c0e9ad5bdc040eda75453348b203c5305326e0d0192b2b0d1d2c7\n// nonce: 0xb841be2546ddad832466f2ffdb84f013c299c6a46b1a54f53eec208f2915c51633b642d4955a1c8493eb20ad0aec4f1d72018b171d730838f3acc2068fea10640cbd01\n\n\n\n// 0xb24125ed75298d9a49f44e54d66021a3892dacb95275ceb03898f2fec7b03d69\n// raw tx:\n// 0xf8ab81c285174876e800830309ea947fc66500c84a76ad7e9c93437bfc5ac33e2ddae980b844a9059cbb0000000000000000000000007fc66500c84a76ad7e9c93437bfc5ac33e2ddae90000000000000000000000000000000000000000000005f098988e139778d18c25a032184aad2188ef84ff927371fafca67c0e3766882742717965dc67a4d21e580aa0598398f66ea1e541199a58976edfdf1a3616cff583dc0277fe4f2e8aa4734c0b\n",
  "sourcePath": "/Users/loredana/ETH/statebridge/contracts/contracts/EthereumClient.sol",
  "compiler": {
    "name": "solc",
    "version": "0.7.1+commit.f4a555be.Emscripten.clang"
  },
  "schemaVersion": "3.0.23",
  "updatedAt": "2020-11-16T11:11:57.098Z",
  "devdoc": {
    "kind": "dev",
    "methods": {},
    "version": 1
  },
  "userdoc": {
    "kind": "user",
    "methods": {},
    "version": 1
  }
}