{
  "contractName": "LightClient",
  "abi": [
    {
      "inputs": [
        {
          "internalType": "bytes32",
          "name": "hash0",
          "type": "bytes32"
        },
        {
          "internalType": "uint256",
          "name": "height",
          "type": "uint256"
        }
      ],
      "stateMutability": "nonpayable",
      "type": "constructor"
    },
    {
      "anonymous": false,
      "inputs": [
        {
          "indexed": true,
          "internalType": "uint256",
          "name": "height",
          "type": "uint256"
        },
        {
          "indexed": true,
          "internalType": "bytes32",
          "name": "hash",
          "type": "bytes32"
        }
      ],
      "name": "BlockAdded",
      "type": "event"
    },
    {
      "inputs": [
        {
          "internalType": "uint256",
          "name": "",
          "type": "uint256"
        }
      ],
      "name": "blockHashes",
      "outputs": [
        {
          "internalType": "bytes32",
          "name": "",
          "type": "bytes32"
        }
      ],
      "stateMutability": "view",
      "type": "function"
    },
    {
      "inputs": [],
      "name": "lastBlockHeight",
      "outputs": [
        {
          "internalType": "uint256",
          "name": "",
          "type": "uint256"
        }
      ],
      "stateMutability": "view",
      "type": "function"
    },
    {
      "inputs": [
        {
          "internalType": "uint256",
          "name": "height",
          "type": "uint256"
        }
      ],
      "name": "getBlockHash",
      "outputs": [
        {
          "internalType": "bytes32",
          "name": "hash",
          "type": "bytes32"
        }
      ],
      "stateMutability": "view",
      "type": "function"
    },
    {
      "inputs": [
        {
          "components": [
            {
              "internalType": "bytes32",
              "name": "hash",
              "type": "bytes32"
            },
            {
              "internalType": "bytes32",
              "name": "parentHash",
              "type": "bytes32"
            },
            {
              "internalType": "bytes32",
              "name": "sha3Uncles",
              "type": "bytes32"
            },
            {
              "internalType": "address",
              "name": "miner",
              "type": "address"
            },
            {
              "internalType": "bytes32",
              "name": "stateRoot",
              "type": "bytes32"
            },
            {
              "internalType": "bytes32",
              "name": "transactionsRoot",
              "type": "bytes32"
            },
            {
              "internalType": "bytes32",
              "name": "receiptsRoot",
              "type": "bytes32"
            },
            {
              "internalType": "bytes",
              "name": "logsBloom",
              "type": "bytes"
            },
            {
              "internalType": "uint256",
              "name": "difficulty",
              "type": "uint256"
            },
            {
              "internalType": "uint256",
              "name": "number",
              "type": "uint256"
            },
            {
              "internalType": "uint256",
              "name": "gasLimit",
              "type": "uint256"
            },
            {
              "internalType": "uint256",
              "name": "gasUsed",
              "type": "uint256"
            },
            {
              "internalType": "uint256",
              "name": "timestamp",
              "type": "uint256"
            },
            {
              "internalType": "bytes",
              "name": "extraData",
              "type": "bytes"
            },
            {
              "internalType": "bytes32",
              "name": "mixHash",
              "type": "bytes32"
            },
            {
              "internalType": "uint64",
              "name": "nonce",
              "type": "uint64"
            }
          ],
          "internalType": "struct EthereumDecoder.BlockHeader",
          "name": "header",
          "type": "tuple"
        }
      ],
      "name": "addBlock",
      "outputs": [],
      "stateMutability": "nonpayable",
      "type": "function"
    }
  ],
  "bytecode": "0x6080604052600080553480156200001557600080fd5b506040516200140e3803806200140e83398181016040528101906200003b919062000090565b81600160008381526020019081526020016000208190555080600081905550505062000119565b6000815190506200007381620000e5565b92915050565b6000815190506200008a81620000ff565b92915050565b60008060408385031215620000a457600080fd5b6000620000b48582860162000062565b9250506020620000c78582860162000079565b9150509250929050565b6000819050919050565b6000819050919050565b620000f081620000d1565b8114620000fc57600080fd5b50565b6200010a81620000db565b81146200011657600080fd5b50565b6112e580620001296000396000f3fe608060405234801561001057600080fd5b506004361061004c5760003560e01c806304953ef71461005157806334cdf78d1461006d5780634b60ae631461009d578063ee82ac5e146100bb575b600080fd5b61006b60048036038101906100669190610f15565b6100eb565b005b61008760048036038101906100829190610f56565b6101f5565b60405161009491906110c1565b60405180910390f35b6100a561020d565b6040516100b2919061113c565b60405180910390f35b6100d560048036038101906100d09190610f56565b610213565b6040516100e291906110c1565b60405180910390f35b60016000540181610120015114610137576040517f08c379a000000000000000000000000000000000000000000000000000000000815260040161012e9061111c565b60405180910390fd5b600160008054815260200190815260200160002054816020015114610191576040517f08c379a0000000000000000000000000000000000000000000000000000000008152600401610188906110fc565b60405180910390fd5b61019a81610230565b8160000151146101df576040517f08c379a00000000000000000000000000000000000000000000000000000000081526004016101d6906110dc565b60405180910390fd5b6101f28161012001518260000151610249565b50565b60016020528060005260406000206000915090505481565b60005481565b600060016000838152602001908152602001600020549050919050565b600061023b8261029a565b805190602001209050919050565b8060016000848152602001908152602001600020819055508160008190555080827f050523c6e97461ceaccc44540ab96e0c97be70813576164de6985b781dbbac1960405160405180910390a35050565b606080600f67ffffffffffffffff811180156102b557600080fd5b506040519080825280602002602001820160405280156102e957816020015b60608152602001906001900390816102d45790505b5090506103188360200151604051602001610304919061108b565b604051602081830303815290604052610609565b8160008151811061032557fe5b602002602001018190525061035c8360400151604051602001610348919061108b565b604051602081830303815290604052610609565b8160018151811061036957fe5b60200260200101819052506103818360600151610669565b8160028151811061038e57fe5b60200260200101819052506103c583608001516040516020016103b1919061108b565b604051602081830303815290604052610609565b816003815181106103d257fe5b60200260200101819052506104098360a001516040516020016103f5919061108b565b604051602081830303815290604052610609565b8160048151811061041657fe5b602002602001018190525061044d8360c00151604051602001610439919061108b565b604051602081830303815290604052610609565b8160058151811061045a57fe5b60200260200101819052506104728360e00151610609565b8160068151811061047f57fe5b60200260200101819052506104988361010001516106a8565b816007815181106104a557fe5b60200260200101819052506104be8361012001516106a8565b816008815181106104cb57fe5b60200260200101819052506104e48361014001516106a8565b816009815181106104f157fe5b602002602001018190525061050a8361016001516106a8565b81600a8151811061051757fe5b60200260200101819052506105308361018001516106a8565b81600b8151811061053d57fe5b6020026020010181905250610556836101a00151610609565b81600c8151811061056357fe5b602002602001018190525061059b836101c00151604051602001610587919061108b565b604051602081830303815290604052610609565b81600d815181106105a857fe5b60200260200101819052506105e0836101e001516040516020016105cc91906110a6565b604051602081830303815290604052610609565b81600e815181106105ed57fe5b6020026020010181905250610601816106c2565b915050919050565b6060806001835114801561063b575060808360008151811061062757fe5b602001015160f81c60f81b60f81c60ff1611155b1561064857829050610660565b61065d610657845160806106ed565b846108ff565b90505b80915050919050565b606080604051837414000000000000000000000000000000000000000018601482015260348101604052809150506106a081610609565b915050919050565b60606106bb6106b683610989565b610609565b9050919050565b6060806106ce83610b10565b90506106e56106df825160c06106ed565b826108ff565b915050919050565b606080603884101561079e57600167ffffffffffffffff8111801561071157600080fd5b506040519080825280601f01601f1916602001820160405280156107445781602001600182028036833780820191505090505b50905082840160001b601f6020811061075957fe5b1a60f81b8160008151811061076a57fe5b60200101907effffffffffffffffffffffffffffffffffffffffffffffffffffffffffffff1916908160001a9053506108f5565b600080600190505b60008187816107b157fe5b04146107cb578180600101925050610100810290506107a6565b6001820167ffffffffffffffff811180156107e557600080fd5b506040519080825280601f01601f1916602001820160405280156108185781602001600182028036833780820191505090505b50925060378583010160001b601f6020811061083057fe5b1a60f81b8360008151811061084157fe5b60200101907effffffffffffffffffffffffffffffffffffffffffffffffffffffffffffff1916908160001a905350600190505b8181116108f2576101008183036101000a878161088e57fe5b048161089657fe5b0660001b601f602081106108a657fe5b1a60f81b8382815181106108b657fe5b60200101907effffffffffffffffffffffffffffffffffffffffffffffffffffffffffffff1916908160001a9053508080600101915050610875565b50505b8091505092915050565b6060806040519050835180825260208201818101602087015b818310156109355780518352602083019250602081019050610918565b50855192508351830184528091508282019050602086015b8183101561096a578051835260208301925060208101905061094d565b50601f19601f8851850115830101166040525050508091505092915050565b606080602067ffffffffffffffff811180156109a457600080fd5b506040519080825280601f01601f1916602001820160405280156109d75781602001600182028036833780820191505090505b50905082602082015260005b6020811015610a4157600060f81b8282815181106109fd57fe5b602001015160f81c60f81b7effffffffffffffffffffffffffffffffffffffffffffffffffffffffffffff191614610a3457610a41565b80806001019150506109e3565b60608160200367ffffffffffffffff81118015610a5d57600080fd5b506040519080825280601f01601f191660200182016040528015610a905781602001600182028036833780820191505090505b50905060005b8151811015610b0457838380600101945081518110610ab157fe5b602001015160f81c60f81b828281518110610ac857fe5b60200101907effffffffffffffffffffffffffffffffffffffffffffffffffffffffffffff1916908160001a9053508080600101915050610a96565b50809350505050919050565b6060600082511415610b6f57600067ffffffffffffffff81118015610b3457600080fd5b506040519080825280601f01601f191660200182016040528015610b675781602001600182028036833780820191505090505b509050610c67565b600080600090505b8351811015610ba657838181518110610b8c57fe5b602002602001015151820191508080600101915050610b77565b60608267ffffffffffffffff81118015610bbf57600080fd5b506040519080825280601f01601f191660200182016040528015610bf25781602001600182028036833780820191505090505b5090506000602082019050600092505b8551831015610c5f576060868481518110610c1957fe5b602002602001015190506000602082019050610c3783828451610c6c565b878581518110610c4357fe5b6020026020010151518301925050508280600101935050610c02565b819450505050505b919050565b6000839050600083905060008390505b60208110610c9f5781518352602083019250602082019150602081039050610c7c565b60006001826020036101000a0390508019835116818551168181178652505050505050505050565b600081359050610cd681611253565b92915050565b600081359050610ceb8161126a565b92915050565b600082601f830112610d0257600080fd5b8135610d15610d1082611184565b611157565b91508082526020830160208301858383011115610d3157600080fd5b610d3c83828461121b565b50505092915050565b60006102008284031215610d5857600080fd5b610d63610200611157565b90506000610d7384828501610cdc565b6000830152506020610d8784828501610cdc565b6020830152506040610d9b84828501610cdc565b6040830152506060610daf84828501610cc7565b6060830152506080610dc384828501610cdc565b60808301525060a0610dd784828501610cdc565b60a08301525060c0610deb84828501610cdc565b60c08301525060e082013567ffffffffffffffff811115610e0b57600080fd5b610e1784828501610cf1565b60e083015250610100610e2c84828501610eeb565b61010083015250610120610e4284828501610eeb565b61012083015250610140610e5884828501610eeb565b61014083015250610160610e6e84828501610eeb565b61016083015250610180610e8484828501610eeb565b610180830152506101a082013567ffffffffffffffff811115610ea657600080fd5b610eb284828501610cf1565b6101a0830152506101c0610ec884828501610cdc565b6101c0830152506101e0610ede84828501610f00565b6101e08301525092915050565b600081359050610efa81611281565b92915050565b600081359050610f0f81611298565b92915050565b600060208284031215610f2757600080fd5b600082013567ffffffffffffffff811115610f4157600080fd5b610f4d84828501610d45565b91505092915050565b600060208284031215610f6857600080fd5b6000610f7684828501610eeb565b91505092915050565b610f88816111d3565b82525050565b610f9f610f9a826111d3565b61122a565b82525050565b6000610fb2600c836111b0565b91507f496e76616c6964206861736800000000000000000000000000000000000000006000830152602082019050919050565b6000610ff26010836111b0565b91507f506172656e74206e6f7420666f756e64000000000000000000000000000000006000830152602082019050919050565b6000611032600c836111b0565b91507f57726f6e672068656967687400000000000000000000000000000000000000006000830152602082019050919050565b61106e816111fd565b82525050565b61108561108082611207565b611234565b82525050565b60006110978284610f8e565b60208201915081905092915050565b60006110b28284611074565b60088201915081905092915050565b60006020820190506110d66000830184610f7f565b92915050565b600060208201905081810360008301526110f581610fa5565b9050919050565b6000602082019050818103600083015261111581610fe5565b9050919050565b6000602082019050818103600083015261113581611025565b9050919050565b60006020820190506111516000830184611065565b92915050565b6000604051905081810181811067ffffffffffffffff8211171561117a57600080fd5b8060405250919050565b600067ffffffffffffffff82111561119b57600080fd5b601f19601f8301169050602081019050919050565b600082825260208201905092915050565b60006111cc826111dd565b9050919050565b6000819050919050565b600073ffffffffffffffffffffffffffffffffffffffff82169050919050565b6000819050919050565b600067ffffffffffffffff82169050919050565b82818337600083830152505050565b6000819050919050565b600061123f82611246565b9050919050565b60008160c01b9050919050565b61125c816111c1565b811461126757600080fd5b50565b611273816111d3565b811461127e57600080fd5b50565b61128a816111fd565b811461129557600080fd5b50565b6112a181611207565b81146112ac57600080fd5b5056fea26469706673582212209f1525d5eb96ac1c1752680fd6ab250b880907c60e6053f37a56cfe9ae1a3f8464736f6c63430007010033",
  "source": "pragma solidity ^0.7.0;\npragma experimental ABIEncoderV2;\n\nimport \"./EthereumDecoder.sol\";\n\ncontract LightClient {\n    uint256 public lastBlockHeight = 0;\n\n    mapping(uint256 => bytes32) public blockHashes;\n\n    event BlockAdded(uint256 indexed height, bytes32 indexed hash);\n\n    constructor(bytes32 hash0, uint256 height) public {\n        blockHashes[height] = hash0;\n        lastBlockHeight = height;\n    }\n\n    function getBlockHash(uint256 height) view public returns (bytes32 hash) {\n        return blockHashes[height];\n    }\n\n    function addBlock(EthereumDecoder.BlockHeader memory header) public {\n        require(header.number == lastBlockHeight + 1, \"Wrong height\");\n        require(header.parentHash == blockHashes[lastBlockHeight], \"Parent not found\");\n        require(header.hash == EthereumDecoder.getBlockHash(header), \"Invalid hash\");\n        // verify difficulty\n        _addBlock(header.number, header.hash);\n    }\n\n    function _addBlock(uint256 height, bytes32 hash) internal {\n        blockHashes[height] = hash;\n        lastBlockHeight = height;\n        emit BlockAdded(height, hash);\n    }\n}\n",
  "sourcePath": "/Users/loredana/ETH/statebridge/contracts/contracts/LightClient.sol",
  "compiler": {
    "name": "solc",
    "version": "0.7.1+commit.f4a555be.Emscripten.clang"
  },
  "schemaVersion": "3.0.23",
  "updatedAt": "2020-11-21T15:03:59.607Z",
  "devdoc": {
    "kind": "dev",
    "methods": {},
    "version": 1
  },
  "userdoc": {
    "kind": "user",
    "methods": {},
    "version": 1
  }
}