{
  "contractName": "Prover",
  "abi": [
    {
      "inputs": [
        {
          "internalType": "address",
          "name": "bridgeClient",
          "type": "address"
        }
      ],
      "stateMutability": "nonpayable",
      "type": "constructor"
    },
    {
      "inputs": [],
      "name": "client",
      "outputs": [
        {
          "internalType": "contract EthereumClient",
          "name": "",
          "type": "address"
        }
      ],
      "stateMutability": "view",
      "type": "function"
    },
    {
      "inputs": [
        {
          "internalType": "uint256",
          "name": "nonce",
          "type": "uint256"
        },
        {
          "internalType": "uint256",
          "name": "gasPrice",
          "type": "uint256"
        },
        {
          "internalType": "uint256",
          "name": "gasLimit",
          "type": "uint256"
        },
        {
          "internalType": "uint256",
          "name": "value",
          "type": "uint256"
        },
        {
          "internalType": "address",
          "name": "to",
          "type": "address"
        },
        {
          "internalType": "bytes",
          "name": "data",
          "type": "bytes"
        },
        {
          "internalType": "uint8",
          "name": "v",
          "type": "uint8"
        },
        {
          "internalType": "bytes32",
          "name": "r",
          "type": "bytes32"
        },
        {
          "internalType": "bytes32",
          "name": "s",
          "type": "bytes32"
        }
      ],
      "name": "getSignedTransaction",
      "outputs": [
        {
          "internalType": "bytes",
          "name": "signedTransaction",
          "type": "bytes"
        }
      ],
      "stateMutability": "pure",
      "type": "function"
    },
    {
      "inputs": [
        {
          "internalType": "bytes",
          "name": "signedTransaction",
          "type": "bytes"
        }
      ],
      "name": "getTransactionHash",
      "outputs": [
        {
          "internalType": "bytes32",
          "name": "hash",
          "type": "bytes32"
        }
      ],
      "stateMutability": "pure",
      "type": "function"
    },
    {
      "inputs": [
        {
          "components": [
            {
              "internalType": "bytes32",
              "name": "hash",
              "type": "bytes32"
            },
            {
              "internalType": "bytes32",
              "name": "parentHash",
              "type": "bytes32"
            },
            {
              "internalType": "bytes32",
              "name": "sha3Uncles",
              "type": "bytes32"
            },
            {
              "internalType": "address",
              "name": "miner",
              "type": "address"
            },
            {
              "internalType": "bytes32",
              "name": "stateRoot",
              "type": "bytes32"
            },
            {
              "internalType": "bytes32",
              "name": "transactionsRoot",
              "type": "bytes32"
            },
            {
              "internalType": "bytes32",
              "name": "receiptsRoot",
              "type": "bytes32"
            },
            {
              "internalType": "bytes",
              "name": "logsBloom",
              "type": "bytes"
            },
            {
              "internalType": "uint256",
              "name": "difficulty",
              "type": "uint256"
            },
            {
              "internalType": "uint256",
              "name": "number",
              "type": "uint256"
            },
            {
              "internalType": "uint256",
              "name": "gasLimit",
              "type": "uint256"
            },
            {
              "internalType": "uint256",
              "name": "gasUsed",
              "type": "uint256"
            },
            {
              "internalType": "uint256",
              "name": "timestamp",
              "type": "uint256"
            },
            {
              "internalType": "bytes",
              "name": "extraData",
              "type": "bytes"
            },
            {
              "internalType": "bytes32",
              "name": "mixHash",
              "type": "bytes32"
            },
            {
              "internalType": "uint64",
              "name": "nonce",
              "type": "uint64"
            }
          ],
          "internalType": "struct EthereumDecoder.BlockHeader",
          "name": "header",
          "type": "tuple"
        }
      ],
      "name": "getBlockRlpData",
      "outputs": [
        {
          "internalType": "bytes",
          "name": "data",
          "type": "bytes"
        }
      ],
      "stateMutability": "pure",
      "type": "function"
    },
    {
      "inputs": [
        {
          "components": [
            {
              "internalType": "bytes32",
              "name": "hash",
              "type": "bytes32"
            },
            {
              "internalType": "bytes32",
              "name": "parentHash",
              "type": "bytes32"
            },
            {
              "internalType": "bytes32",
              "name": "sha3Uncles",
              "type": "bytes32"
            },
            {
              "internalType": "address",
              "name": "miner",
              "type": "address"
            },
            {
              "internalType": "bytes32",
              "name": "stateRoot",
              "type": "bytes32"
            },
            {
              "internalType": "bytes32",
              "name": "transactionsRoot",
              "type": "bytes32"
            },
            {
              "internalType": "bytes32",
              "name": "receiptsRoot",
              "type": "bytes32"
            },
            {
              "internalType": "bytes",
              "name": "logsBloom",
              "type": "bytes"
            },
            {
              "internalType": "uint256",
              "name": "difficulty",
              "type": "uint256"
            },
            {
              "internalType": "uint256",
              "name": "number",
              "type": "uint256"
            },
            {
              "internalType": "uint256",
              "name": "gasLimit",
              "type": "uint256"
            },
            {
              "internalType": "uint256",
              "name": "gasUsed",
              "type": "uint256"
            },
            {
              "internalType": "uint256",
              "name": "timestamp",
              "type": "uint256"
            },
            {
              "internalType": "bytes",
              "name": "extraData",
              "type": "bytes"
            },
            {
              "internalType": "bytes32",
              "name": "mixHash",
              "type": "bytes32"
            },
            {
              "internalType": "uint64",
              "name": "nonce",
              "type": "uint64"
            }
          ],
          "internalType": "struct EthereumDecoder.BlockHeader",
          "name": "header",
          "type": "tuple"
        }
      ],
      "name": "getBlockHash",
      "outputs": [
        {
          "internalType": "bytes32",
          "name": "hash",
          "type": "bytes32"
        }
      ],
      "stateMutability": "pure",
      "type": "function"
    },
    {
      "inputs": [
        {
          "components": [
            {
              "internalType": "uint8",
              "name": "status",
              "type": "uint8"
            },
            {
              "internalType": "uint256",
              "name": "gasUsed",
              "type": "uint256"
            },
            {
              "internalType": "bytes",
              "name": "logsBloom",
              "type": "bytes"
            },
            {
              "components": [
                {
                  "internalType": "address",
                  "name": "contractAddress",
                  "type": "address"
                },
                {
                  "internalType": "bytes32[]",
                  "name": "topics",
                  "type": "bytes32[]"
                },
                {
                  "internalType": "bytes",
                  "name": "data",
                  "type": "bytes"
                }
              ],
              "internalType": "struct EthereumDecoder.Log[]",
              "name": "logs",
              "type": "tuple[]"
            }
          ],
          "internalType": "struct EthereumDecoder.TransactionReceiptTrie",
          "name": "receipt",
          "type": "tuple"
        }
      ],
      "name": "getReceiptRlpData",
      "outputs": [
        {
          "internalType": "bytes",
          "name": "data",
          "type": "bytes"
        }
      ],
      "stateMutability": "pure",
      "type": "function"
    },
    {
      "inputs": [
        {
          "internalType": "bytes",
          "name": "rlpHeader",
          "type": "bytes"
        }
      ],
      "name": "toBlockHeader",
      "outputs": [
        {
          "components": [
            {
              "internalType": "bytes32",
              "name": "hash",
              "type": "bytes32"
            },
            {
              "internalType": "bytes32",
              "name": "parentHash",
              "type": "bytes32"
            },
            {
              "internalType": "bytes32",
              "name": "sha3Uncles",
              "type": "bytes32"
            },
            {
              "internalType": "address",
              "name": "miner",
              "type": "address"
            },
            {
              "internalType": "bytes32",
              "name": "stateRoot",
              "type": "bytes32"
            },
            {
              "internalType": "bytes32",
              "name": "transactionsRoot",
              "type": "bytes32"
            },
            {
              "internalType": "bytes32",
              "name": "receiptsRoot",
              "type": "bytes32"
            },
            {
              "internalType": "bytes",
              "name": "logsBloom",
              "type": "bytes"
            },
            {
              "internalType": "uint256",
              "name": "difficulty",
              "type": "uint256"
            },
            {
              "internalType": "uint256",
              "name": "number",
              "type": "uint256"
            },
            {
              "internalType": "uint256",
              "name": "gasLimit",
              "type": "uint256"
            },
            {
              "internalType": "uint256",
              "name": "gasUsed",
              "type": "uint256"
            },
            {
              "internalType": "uint256",
              "name": "timestamp",
              "type": "uint256"
            },
            {
              "internalType": "bytes",
              "name": "extraData",
              "type": "bytes"
            },
            {
              "internalType": "bytes32",
              "name": "mixHash",
              "type": "bytes32"
            },
            {
              "internalType": "uint64",
              "name": "nonce",
              "type": "uint64"
            }
          ],
          "internalType": "struct EthereumDecoder.BlockHeader",
          "name": "header",
          "type": "tuple"
        }
      ],
      "stateMutability": "pure",
      "type": "function"
    },
    {
      "inputs": [
        {
          "internalType": "bytes",
          "name": "data",
          "type": "bytes"
        }
      ],
      "name": "rlp2List",
      "outputs": [
        {
          "internalType": "bytes[]",
          "name": "decoded",
          "type": "bytes[]"
        }
      ],
      "stateMutability": "pure",
      "type": "function"
    },
    {
      "inputs": [
        {
          "internalType": "bytes[]",
          "name": "data",
          "type": "bytes[]"
        }
      ],
      "name": "encodeproof",
      "outputs": [
        {
          "internalType": "bytes",
          "name": "encoded",
          "type": "bytes"
        }
      ],
      "stateMutability": "pure",
      "type": "function"
    },
    {
      "inputs": [
        {
          "components": [
            {
              "internalType": "bytes32",
              "name": "hash",
              "type": "bytes32"
            },
            {
              "internalType": "bytes32",
              "name": "parentHash",
              "type": "bytes32"
            },
            {
              "internalType": "bytes32",
              "name": "sha3Uncles",
              "type": "bytes32"
            },
            {
              "internalType": "address",
              "name": "miner",
              "type": "address"
            },
            {
              "internalType": "bytes32",
              "name": "stateRoot",
              "type": "bytes32"
            },
            {
              "internalType": "bytes32",
              "name": "transactionsRoot",
              "type": "bytes32"
            },
            {
              "internalType": "bytes32",
              "name": "receiptsRoot",
              "type": "bytes32"
            },
            {
              "internalType": "bytes",
              "name": "logsBloom",
              "type": "bytes"
            },
            {
              "internalType": "uint256",
              "name": "difficulty",
              "type": "uint256"
            },
            {
              "internalType": "uint256",
              "name": "number",
              "type": "uint256"
            },
            {
              "internalType": "uint256",
              "name": "gasLimit",
              "type": "uint256"
            },
            {
              "internalType": "uint256",
              "name": "gasUsed",
              "type": "uint256"
            },
            {
              "internalType": "uint256",
              "name": "timestamp",
              "type": "uint256"
            },
            {
              "internalType": "bytes",
              "name": "extraData",
              "type": "bytes"
            },
            {
              "internalType": "bytes32",
              "name": "mixHash",
              "type": "bytes32"
            },
            {
              "internalType": "uint64",
              "name": "nonce",
              "type": "uint64"
            }
          ],
          "internalType": "struct EthereumDecoder.BlockHeader",
          "name": "header",
          "type": "tuple"
        },
        {
          "components": [
            {
              "internalType": "bytes32",
              "name": "expectedRoot",
              "type": "bytes32"
            },
            {
              "internalType": "bytes",
              "name": "key",
              "type": "bytes"
            },
            {
              "internalType": "bytes[]",
              "name": "proof",
              "type": "bytes[]"
            },
            {
              "internalType": "uint256",
              "name": "keyIndex",
              "type": "uint256"
            },
            {
              "internalType": "uint256",
              "name": "proofIndex",
              "type": "uint256"
            },
            {
              "internalType": "bytes",
              "name": "expectedValue",
              "type": "bytes"
            }
          ],
          "internalType": "struct Prover.MerkleProof",
          "name": "accountProof",
          "type": "tuple"
        },
        {
          "components": [
            {
              "internalType": "bytes32",
              "name": "expectedRoot",
              "type": "bytes32"
            },
            {
              "internalType": "bytes",
              "name": "key",
              "type": "bytes"
            },
            {
              "internalType": "bytes[]",
              "name": "proof",
              "type": "bytes[]"
            },
            {
              "internalType": "uint256",
              "name": "keyIndex",
              "type": "uint256"
            },
            {
              "internalType": "uint256",
              "name": "proofIndex",
              "type": "uint256"
            },
            {
              "internalType": "bytes",
              "name": "expectedValue",
              "type": "bytes"
            }
          ],
          "internalType": "struct Prover.MerkleProof",
          "name": "storageProof",
          "type": "tuple"
        }
      ],
      "name": "verifyStorage",
      "outputs": [
        {
          "internalType": "bytes",
          "name": "",
          "type": "bytes"
        }
      ],
      "stateMutability": "view",
      "type": "function"
    },
    {
      "inputs": [
        {
          "components": [
            {
              "internalType": "bytes32",
              "name": "hash",
              "type": "bytes32"
            },
            {
              "internalType": "bytes32",
              "name": "parentHash",
              "type": "bytes32"
            },
            {
              "internalType": "bytes32",
              "name": "sha3Uncles",
              "type": "bytes32"
            },
            {
              "internalType": "address",
              "name": "miner",
              "type": "address"
            },
            {
              "internalType": "bytes32",
              "name": "stateRoot",
              "type": "bytes32"
            },
            {
              "internalType": "bytes32",
              "name": "transactionsRoot",
              "type": "bytes32"
            },
            {
              "internalType": "bytes32",
              "name": "receiptsRoot",
              "type": "bytes32"
            },
            {
              "internalType": "bytes",
              "name": "logsBloom",
              "type": "bytes"
            },
            {
              "internalType": "uint256",
              "name": "difficulty",
              "type": "uint256"
            },
            {
              "internalType": "uint256",
              "name": "number",
              "type": "uint256"
            },
            {
              "internalType": "uint256",
              "name": "gasLimit",
              "type": "uint256"
            },
            {
              "internalType": "uint256",
              "name": "gasUsed",
              "type": "uint256"
            },
            {
              "internalType": "uint256",
              "name": "timestamp",
              "type": "uint256"
            },
            {
              "internalType": "bytes",
              "name": "extraData",
              "type": "bytes"
            },
            {
              "internalType": "bytes32",
              "name": "mixHash",
              "type": "bytes32"
            },
            {
              "internalType": "uint64",
              "name": "nonce",
              "type": "uint64"
            }
          ],
          "internalType": "struct EthereumDecoder.BlockHeader",
          "name": "header",
          "type": "tuple"
        },
        {
          "components": [
            {
              "internalType": "bytes32",
              "name": "expectedRoot",
              "type": "bytes32"
            },
            {
              "internalType": "bytes",
              "name": "key",
              "type": "bytes"
            },
            {
              "internalType": "bytes[]",
              "name": "proof",
              "type": "bytes[]"
            },
            {
              "internalType": "uint256",
              "name": "keyIndex",
              "type": "uint256"
            },
            {
              "internalType": "uint256",
              "name": "proofIndex",
              "type": "uint256"
            },
            {
              "internalType": "bytes",
              "name": "expectedValue",
              "type": "bytes"
            }
          ],
          "internalType": "struct Prover.MerkleProof",
          "name": "txdata",
          "type": "tuple"
        },
        {
          "components": [
            {
              "internalType": "bytes32",
              "name": "expectedRoot",
              "type": "bytes32"
            },
            {
              "internalType": "bytes",
              "name": "key",
              "type": "bytes"
            },
            {
              "internalType": "bytes[]",
              "name": "proof",
              "type": "bytes[]"
            },
            {
              "internalType": "uint256",
              "name": "keyIndex",
              "type": "uint256"
            },
            {
              "internalType": "uint256",
              "name": "proofIndex",
              "type": "uint256"
            },
            {
              "internalType": "bytes",
              "name": "expectedValue",
              "type": "bytes"
            }
          ],
          "internalType": "struct Prover.MerkleProof",
          "name": "receiptdata",
          "type": "tuple"
        },
        {
          "internalType": "uint256",
          "name": "value",
          "type": "uint256"
        }
      ],
      "name": "verifyBalance",
      "outputs": [
        {
          "internalType": "bytes",
          "name": "",
          "type": "bytes"
        }
      ],
      "stateMutability": "view",
      "type": "function"
    },
    {
      "inputs": [
        {
          "components": [
            {
              "internalType": "bytes32",
              "name": "expectedRoot",
              "type": "bytes32"
            },
            {
              "internalType": "bytes",
              "name": "key",
              "type": "bytes"
            },
            {
              "internalType": "bytes[]",
              "name": "proof",
              "type": "bytes[]"
            },
            {
              "internalType": "uint256",
              "name": "keyIndex",
              "type": "uint256"
            },
            {
              "internalType": "uint256",
              "name": "proofIndex",
              "type": "uint256"
            },
            {
              "internalType": "bytes",
              "name": "expectedValue",
              "type": "bytes"
            }
          ],
          "internalType": "struct Prover.MerkleProof",
          "name": "data",
          "type": "tuple"
        }
      ],
      "name": "verifyTrieProof",
      "outputs": [
        {
          "internalType": "bytes",
          "name": "",
          "type": "bytes"
        }
      ],
      "stateMutability": "pure",
      "type": "function"
    },
    {
      "inputs": [
        {
          "components": [
            {
              "internalType": "bytes32",
              "name": "expectedRoot",
              "type": "bytes32"
            },
            {
              "internalType": "bytes",
              "name": "key",
              "type": "bytes"
            },
            {
              "internalType": "bytes[]",
              "name": "proof",
              "type": "bytes[]"
            },
            {
              "internalType": "uint256",
              "name": "keyIndex",
              "type": "uint256"
            },
            {
              "internalType": "uint256",
              "name": "proofIndex",
              "type": "uint256"
            },
            {
              "internalType": "bytes",
              "name": "expectedValue",
              "type": "bytes"
            }
          ],
          "internalType": "struct Prover.MerkleProof",
          "name": "data",
          "type": "tuple"
        }
      ],
      "name": "verifyTrieProofBranch",
      "outputs": [
        {
          "internalType": "bytes",
          "name": "",
          "type": "bytes"
        }
      ],
      "stateMutability": "pure",
      "type": "function"
    },
    {
      "inputs": [
        {
          "components": [
            {
              "components": [
                {
                  "internalType": "uint256",
                  "name": "len",
                  "type": "uint256"
                },
                {
                  "internalType": "uint256",
                  "name": "memPtr",
                  "type": "uint256"
                }
              ],
              "internalType": "struct RLPDecode.RLPItem",
              "name": "item",
              "type": "tuple"
            },
            {
              "internalType": "uint256",
              "name": "nextPtr",
              "type": "uint256"
            }
          ],
          "internalType": "struct RLPDecode.Iterator",
          "name": "dec",
          "type": "tuple"
        },
        {
          "components": [
            {
              "internalType": "bytes32",
              "name": "expectedRoot",
              "type": "bytes32"
            },
            {
              "internalType": "bytes",
              "name": "key",
              "type": "bytes"
            },
            {
              "internalType": "bytes[]",
              "name": "proof",
              "type": "bytes[]"
            },
            {
              "internalType": "uint256",
              "name": "keyIndex",
              "type": "uint256"
            },
            {
              "internalType": "uint256",
              "name": "proofIndex",
              "type": "uint256"
            },
            {
              "internalType": "bytes",
              "name": "expectedValue",
              "type": "bytes"
            }
          ],
          "internalType": "struct Prover.MerkleProof",
          "name": "data",
          "type": "tuple"
        }
      ],
      "name": "verifyTrieProofLeafOrExtension",
      "outputs": [
        {
          "internalType": "bytes",
          "name": "",
          "type": "bytes"
        }
      ],
      "stateMutability": "pure",
      "type": "function"
    },
    {
      "inputs": [
        {
          "internalType": "bytes",
          "name": "nodekey",
          "type": "bytes"
        },
        {
          "internalType": "bytes",
          "name": "nodevalue",
          "type": "bytes"
        },
        {
          "components": [
            {
              "internalType": "bytes32",
              "name": "expectedRoot",
              "type": "bytes32"
            },
            {
              "internalType": "bytes",
              "name": "key",
              "type": "bytes"
            },
            {
              "internalType": "bytes[]",
              "name": "proof",
              "type": "bytes[]"
            },
            {
              "internalType": "uint256",
              "name": "keyIndex",
              "type": "uint256"
            },
            {
              "internalType": "uint256",
              "name": "proofIndex",
              "type": "uint256"
            },
            {
              "internalType": "bytes",
              "name": "expectedValue",
              "type": "bytes"
            }
          ],
          "internalType": "struct Prover.MerkleProof",
          "name": "data",
          "type": "tuple"
        }
      ],
      "name": "verifyTrieProofLeafEven",
      "outputs": [
        {
          "internalType": "bytes",
          "name": "",
          "type": "bytes"
        }
      ],
      "stateMutability": "pure",
      "type": "function"
    },
    {
      "inputs": [
        {
          "internalType": "bytes",
          "name": "nodekey",
          "type": "bytes"
        },
        {
          "internalType": "bytes",
          "name": "nodevalue",
          "type": "bytes"
        },
        {
          "components": [
            {
              "internalType": "bytes32",
              "name": "expectedRoot",
              "type": "bytes32"
            },
            {
              "internalType": "bytes",
              "name": "key",
              "type": "bytes"
            },
            {
              "internalType": "bytes[]",
              "name": "proof",
              "type": "bytes[]"
            },
            {
              "internalType": "uint256",
              "name": "keyIndex",
              "type": "uint256"
            },
            {
              "internalType": "uint256",
              "name": "proofIndex",
              "type": "uint256"
            },
            {
              "internalType": "bytes",
              "name": "expectedValue",
              "type": "bytes"
            }
          ],
          "internalType": "struct Prover.MerkleProof",
          "name": "data",
          "type": "tuple"
        }
      ],
      "name": "verifyTrieProofLeafOdd",
      "outputs": [
        {
          "internalType": "bytes",
          "name": "",
          "type": "bytes"
        }
      ],
      "stateMutability": "pure",
      "type": "function"
    },
    {
      "inputs": [
        {
          "internalType": "bytes",
          "name": "nodekey",
          "type": "bytes"
        },
        {
          "internalType": "bytes",
          "name": "nodevalue",
          "type": "bytes"
        },
        {
          "components": [
            {
              "internalType": "bytes32",
              "name": "expectedRoot",
              "type": "bytes32"
            },
            {
              "internalType": "bytes",
              "name": "key",
              "type": "bytes"
            },
            {
              "internalType": "bytes[]",
              "name": "proof",
              "type": "bytes[]"
            },
            {
              "internalType": "uint256",
              "name": "keyIndex",
              "type": "uint256"
            },
            {
              "internalType": "uint256",
              "name": "proofIndex",
              "type": "uint256"
            },
            {
              "internalType": "bytes",
              "name": "expectedValue",
              "type": "bytes"
            }
          ],
          "internalType": "struct Prover.MerkleProof",
          "name": "data",
          "type": "tuple"
        }
      ],
      "name": "verifyTrieProofExtensionEven",
      "outputs": [
        {
          "internalType": "bytes",
          "name": "",
          "type": "bytes"
        }
      ],
      "stateMutability": "pure",
      "type": "function"
    },
    {
      "inputs": [
        {
          "internalType": "bytes",
          "name": "nodekey",
          "type": "bytes"
        },
        {
          "internalType": "bytes",
          "name": "nodevalue",
          "type": "bytes"
        },
        {
          "components": [
            {
              "internalType": "bytes32",
              "name": "expectedRoot",
              "type": "bytes32"
            },
            {
              "internalType": "bytes",
              "name": "key",
              "type": "bytes"
            },
            {
              "internalType": "bytes[]",
              "name": "proof",
              "type": "bytes[]"
            },
            {
              "internalType": "uint256",
              "name": "keyIndex",
              "type": "uint256"
            },
            {
              "internalType": "uint256",
              "name": "proofIndex",
              "type": "uint256"
            },
            {
              "internalType": "bytes",
              "name": "expectedValue",
              "type": "bytes"
            }
          ],
          "internalType": "struct Prover.MerkleProof",
          "name": "data",
          "type": "tuple"
        }
      ],
      "name": "verifyTrieProofExtensionOdd",
      "outputs": [
        {
          "internalType": "bytes",
          "name": "",
          "type": "bytes"
        }
      ],
      "stateMutability": "pure",
      "type": "function"
    },
    {
      "inputs": [
        {
          "internalType": "bytes",
          "name": "data",
          "type": "bytes"
        }
      ],
      "name": "getHash",
      "outputs": [
        {
          "internalType": "bytes32",
          "name": "hash",
          "type": "bytes32"
        }
      ],
      "stateMutability": "pure",
      "type": "function"
    }
  ],
  "bytecode": "0x60806040523480156200001157600080fd5b5060405162004b9238038062004b92833981810160405281019062000037919062000095565b806000806101000a81548173ffffffffffffffffffffffffffffffffffffffff021916908373ffffffffffffffffffffffffffffffffffffffff160217905550506200010f565b6000815190506200008f81620000f5565b92915050565b600060208284031215620000a857600080fd5b6000620000b8848285016200007e565b91505092915050565b6000620000ce82620000d5565b9050919050565b600073ffffffffffffffffffffffffffffffffffffffff82169050919050565b6200010081620000c1565b81146200010c57600080fd5b50565b614a73806200011f6000396000f3fe608060405234801561001057600080fd5b50600436106101215760003560e01c80638bc4dc84116100ad578063bbb15c6c11610071578063bbb15c6c146103b4578063bee02b17146103e4578063c6f7515d14610414578063e7617bf814610444578063ee581fc91461047457610121565b80638bc4dc84146102c457806396a99d92146102f4578063a2deadbd14610324578063b00140aa14610354578063b09549e31461038457610121565b8063484c68af116100f4578063484c68af146101d457806353de34e91461020457806355eff580146102345780636ec0041f1461026457806374574e541461029457610121565b8063109e94cf1461012657806323c942591461014457806338da163114610174578063469523ac146101a4575b600080fd5b61012e6104a4565b60405161013b9190614578565b60405180910390f35b61015e60048036038101906101599190613beb565b6104c8565b60405161016b9190614556565b60405180910390f35b61018e60048036038101906101899190613a68565b610575565b60405161019b9190614556565b60405180910390f35b6101be60048036038101906101b99190613b40565b610587565b6040516101cb9190614556565b60405180910390f35b6101ee60048036038101906101e99190613a68565b6107de565b6040516101fb919061453b565b60405180910390f35b61021e600480360381019061021991906139d1565b6107f7565b60405161022b9190614556565b60405180910390f35b61024e60048036038101906102499190613c3f565b6109bd565b60405161025b9190614556565b60405180910390f35b61027e600480360381019061027991906139d1565b610bed565b60405161028b9190614556565b60405180910390f35b6102ae60048036038101906102a99190613c3f565b610d81565b6040516102bb9190614556565b60405180910390f35b6102de60048036038101906102d991906139d1565b610f78565b6040516102eb9190614556565b60405180910390f35b61030e60048036038101906103099190613aa9565b6111c0565b60405161031b9190614556565b60405180910390f35b61033e60048036038101906103399190613990565b611275565b60405161034b919061453b565b60405180910390f35b61036e60048036038101906103699190613990565b611286565b60405161037b919061453b565b60405180910390f35b61039e60048036038101906103999190613c80565b611297565b6040516103ab9190614556565b60405180910390f35b6103ce60048036038101906103c99190613926565b6112a9565b6040516103db9190614556565b60405180910390f35b6103fe60048036038101906103f99190613cc1565b611359565b60405161040b9190614556565b60405180910390f35b61042e600480360381019061042991906139d1565b611368565b60405161043b9190614556565b60405180910390f35b61045e60048036038101906104599190613990565b611489565b60405161046b9190614733565b60405180910390f35b61048e60048036038101906104899190613990565b6114a1565b60405161049b9190614519565b60405180910390f35b60008054906101000a900473ffffffffffffffffffffffffffffffffffffffff1681565b6060806104dc6104d78561155f565b6115ef565b905060606104f16104ec8661155f565b6115ef565b90506000602083015160f81c8060041c915050600281141561052257610518838387610bed565b935050505061056f565b600381141561054057610536838387610f78565b935050505061056f565b600081141561055e57610554838387611368565b935050505061056f565b6105698383876107f7565b93505050505b92915050565b6060610580826116c8565b9050919050565b60606105916130e3565b61059e8560a00151611a37565b90506105a861314e565b6105b58560a00151611b32565b905060006105c2886107de565b90508760000151811461060a576040517f08c379a000000000000000000000000000000000000000000000000000000000815260040161060190614633565b60405180910390fd5b60008060009054906101000a900473ffffffffffffffffffffffffffffffffffffffff1673ffffffffffffffffffffffffffffffffffffffff1663ee82ac5e8a61012001516040518263ffffffff1660e01b815260040161066b9190614755565b60206040518083038186803b15801561068357600080fd5b505afa158015610697573d6000803e3d6000fd5b505050506040513d601f19601f820116820180604052508101906106bb9190613967565b90506000801b8111610702576040517f08c379a00000000000000000000000000000000000000000000000000000000081526004016106f990614613565b60405180910390fd5b6001836000015160ff161461074c576040517f08c379a000000000000000000000000000000000000000000000000000000000815260040161074390614693565b60405180910390fd5b85846080015114610792576040517f08c379a0000000000000000000000000000000000000000000000000000000008152600401610789906146d3565b60405180910390fd5b606061079d896109bd565b905060606107aa896109bd565b905081816040516020016107bf9291906144da565b6040516020818303038152906040529650505050505050949350505050565b60006107e982610575565b805190602001209050919050565b606060008451905060608167ffffffffffffffff8111801561081857600080fd5b506040519080825280601f01601f19166020018201604052801561084b5781602001600182028036833780820191505090505b50905060608267ffffffffffffffff8111801561086757600080fd5b506040519080825280601f01601f19166020018201604052801561089a5781602001600182028036833780820191505090505b509050606085602001519050600086606001519050602089015160041b60041c6020850152806020018201516020840152828051906020012084805190602001201415610929576108ea88611c15565b87600001818152505084876060018181510191508181525050600187608001818151019150818152505061091d876109bd565b955050505050506109b6565b60008760a00151511415610979576040518060400160405280600381526020017f1122770000000000000000000000000000000000000000000000000000000000815250955050505050506109b6565b6040518060400160405280600381526020017e22770000000000000000000000000000000000000000000000000000000000815250955050505050505b9392505050565b60608082604001518360800151815181106109d457fe5b602002602001015190506109e6613179565b6109f76109f283611c23565b611c51565b9050600084606001511415610a58578360000151828051906020012014610a53576040517f08c379a0000000000000000000000000000000000000000000000000000000008152600401610a4a90614593565b60405180910390fd5b610b15565b602082511015610ac6576000610a75610a708361155f565b611cd5565b60001b905084600001518114610ac0576040517f08c379a0000000000000000000000000000000000000000000000000000000008152600401610ab7906146f3565b60405180910390fd5b50610b14565b8360000151828051906020012014610b13576040517f08c379a0000000000000000000000000000000000000000000000000000000008152600401610b0a90614653565b60405180910390fd5b5b5b6000610b248260000151611d7c565b90506011811415610b4257610b3885610d81565b9350505050610be8565b6002811415610b5f57610b5582866104c8565b9350505050610be8565b60008560a00151511415610bad576040518060400160405280600281526020017f11220000000000000000000000000000000000000000000000000000000000008152509350505050610be8565b6040518060400160405280600281526020017e2200000000000000000000000000000000000000000000000000000000000081525093505050505b919050565b60606000600185510390506060610c0686602184611de9565b90506060610c208560200151866060015160200185611de9565b905085805190602001208560a00151805190602001201415610cf157808051906020012082805190602001201415610c92576040518060400160405280600281526020017f11440000000000000000000000000000000000000000000000000000000000008152509350505050610d7a565b8080519060200120610ca383611e5c565b805190602001201415610cf0576040518060400160405280600281526020017f11440000000000000000000000000000000000000000000000000000000000008152509350505050610d7a565b5b60008560a00151511415610d3f576040518060400160405280600381526020017f11224400000000000000000000000000000000000000000000000000000000008152509350505050610d7a565b6040518060400160405280600381526020017e2244000000000000000000000000000000000000000000000000000000000081525093505050505b9392505050565b6060808260400151836080015181518110610d9857fe5b60200260200101519050826020015151836060015110610e42576060610de1610dc8610dc384611c23565b611fde565b601081518110610dd457fe5b60200260200101516115ef565b90508360a001518051906020012081805190602001201415610e3c576040518060400160405280600281526020017f113300000000000000000000000000000000000000000000000000000000000081525092505050610f73565b50610eee565b60008360200151846060015181518110610e5857fe5b602001015160f81c60f81b60f81c60ff1690506060610e99610e81610e7c85611c23565b611fde565b8381518110610e8c57fe5b60200260200101516115ef565b90506000815114610eeb57610ead81611c15565b85600001818152505060018560600181815101915081815250506001856080018181510191508181525050610ee1856109bd565b9350505050610f73565b50505b60008360a00151511415610f3a576040518060400160405280600381526020017f1122110000000000000000000000000000000000000000000000000000000000815250915050610f73565b6040518060400160405280600381526020017e221100000000000000000000000000000000000000000000000000000000008152509150505b919050565b606080845167ffffffffffffffff81118015610f9357600080fd5b506040519080825280601f01601f191660200182016040528015610fc65781602001600182028036833780820191505090505b509050606083606001518460200151510367ffffffffffffffff81118015610fed57600080fd5b506040519080825280601f01601f1916602001820160405280156110205781602001600182028036833780820191505090505b509050606084602001519050600085606001519050602088015160041b60041c602085015280602001820151602084015280604001820151604084015286805190602001208660a0015180519060200120141561112e578280519060200120848051906020012014156110ce576040518060400160405280600281526020017f11550000000000000000000000000000000000000000000000000000000000008152509450505050506111b9565b82805190602001206110df85611e5c565b80519060200120141561112d576040518060400160405280600281526020017f11550000000000000000000000000000000000000000000000000000000000008152509450505050506111b9565b5b60008660a0015151141561117d576040518060400160405280600381526020017f11225500000000000000000000000000000000000000000000000000000000008152509450505050506111b9565b6040518060400160405280600381526020017e225500000000000000000000000000000000000000000000000000000000008152509450505050505b9392505050565b60606111ca613199565b6111d78460a00151612108565b905060006111e4866107de565b90508560000151811461122c576040517f08c379a000000000000000000000000000000000000000000000000000000000815260040161122390614633565b60405180910390fd5b6060611237866109bd565b90506060611244866109bd565b905081816040516020016112599291906144da565b6040516020818303038152906040529450505050509392505050565b600081805190602001209050919050565b600081805190602001209050919050565b60606112a28261220e565b9050919050565b606080825167ffffffffffffffff811180156112c457600080fd5b506040519080825280602002602001820160405280156112f857816020015b60608152602001906001900390816112e35790505b50905060005b83518110156113475761132384828151811061131657fe5b60200260200101516123af565b82828151811061132f57fe5b602002602001018190525080806001019150506112fe565b506113518161240f565b915050919050565b60609998505050505050505050565b6060600060018551039050606061138186602184611de9565b9050606061139b8560200151866060015160200185611de9565b90508080519060200120828051906020012014156113f9576113bc86611c15565b8560000181815250508285606001818151019150818152505060018560800181815101915081815250506113ef856109bd565b9350505050611482565b60008560a00151511415611447576040518060400160405280600381526020017f11226600000000000000000000000000000000000000000000000000000000008152509350505050611482565b6040518060400160405280600381526020017e2266000000000000000000000000000000000000000000000000000000000081525093505050505b9392505050565b6114916131c7565b61149a8261243a565b9050919050565b6060806114b56114b084611c23565b611fde565b90506060815167ffffffffffffffff811180156114d157600080fd5b5060405190808252806020026020018201604052801561150557816020015b60608152602001906001900390816114f05790505b50905060005b82518110156115545761153083828151811061152357fe5b60200260200101516115ef565b82828151811061153c57fe5b6020026020010181905250808060010191505061150b565b508092505050919050565b611567613279565b6115708261267a565b6115af576040517f08c379a00000000000000000000000000000000000000000000000000000000081526004016115a6906145f3565b60405180910390fd5b60008260200151905060006115c3826126a4565b905080820184602001818152505060405180604001604052808281526020018381525092505050919050565b60606000826000015111611638576040517f08c379a000000000000000000000000000000000000000000000000000000000815260040161162f906146b3565b60405180910390fd5b6000611647836020015161275c565b9050600081846000015103905060608167ffffffffffffffff8111801561166d57600080fd5b506040519080825280601f01601f1916602001820160405280156116a05781602001600182028036833780820191505090505b50905060008160200190506116bc8487602001510182856127e5565b81945050505050919050565b606080600f67ffffffffffffffff811180156116e357600080fd5b5060405190808252806020026020018201604052801561171757816020015b60608152602001906001900390816117025790505b509050611746836020015160405160200161173291906144bf565b6040516020818303038152906040526123af565b8160008151811061175357fe5b602002602001018190525061178a836040015160405160200161177691906144bf565b6040516020818303038152906040526123af565b8160018151811061179757fe5b60200260200101819052506117af836060015161284c565b816002815181106117bc57fe5b60200260200101819052506117f383608001516040516020016117df91906144bf565b6040516020818303038152906040526123af565b8160038151811061180057fe5b60200260200101819052506118378360a0015160405160200161182391906144bf565b6040516020818303038152906040526123af565b8160048151811061184457fe5b602002602001018190525061187b8360c0015160405160200161186791906144bf565b6040516020818303038152906040526123af565b8160058151811061188857fe5b60200260200101819052506118a08360e001516123af565b816006815181106118ad57fe5b60200260200101819052506118c683610100015161288b565b816007815181106118d357fe5b60200260200101819052506118ec83610120015161288b565b816008815181106118f957fe5b602002602001018190525061191283610140015161288b565b8160098151811061191f57fe5b602002602001018190525061193883610160015161288b565b81600a8151811061194557fe5b602002602001018190525061195e83610180015161288b565b81600b8151811061196b57fe5b6020026020010181905250611984836101a001516123af565b81600c8151811061199157fe5b60200260200101819052506119c9836101c001516040516020016119b591906144bf565b6040516020818303038152906040526123af565b81600d815181106119d657fe5b6020026020010181905250611a0e836101e001516040516020016119fa91906144fe565b6040516020818303038152906040526123af565b81600e81518110611a1b57fe5b6020026020010181905250611a2f8161240f565b915050919050565b611a3f6130e3565b611a47613179565b611a58611a5384611c23565b611c51565b905060005b611a668261267a565b15611b2b576000811415611a9357611a85611a808361155f565b611cd5565b836000018181525050611b1e565b6003811415611ae957611aad611aa88361155f565b6128a5565b836060019073ffffffffffffffffffffffffffffffffffffffff16908173ffffffffffffffffffffffffffffffffffffffff1681525050611b1d565b6004811415611b1157611b03611afe8361155f565b611cd5565b836080018181525050611b1c565b611b1a8261155f565b505b5b5b8080600101915050611a5d565b5050919050565b611b3a61314e565b611b42613179565b611b53611b4e84611c23565b611c51565b905060005b611b618261267a565b15611c0e576000811415611b9657611b80611b7b8361155f565b611cd5565b836000019060ff16908160ff1681525050611c01565b6001811415611bbe57611bb0611bab8361155f565b611cd5565b836020018181525050611c00565b6003811415611be557611bd8611bd38361155f565b6115ef565b8360400181905250611bff565b6004811415611bf357611bfe565b611bfc8261155f565b505b5b5b5b8080600101915050611b58565b5050919050565b600060208201519050919050565b611c2b613279565b600060208301905060405180604001604052808451815260200182815250915050919050565b611c59613179565b611c62826128fe565b611ca1576040517f08c379a0000000000000000000000000000000000000000000000000000000008152600401611c98906145b3565b60405180910390fd5b6000611cb0836020015161275c565b8360200151019050604051806040016040528084815260200182815250915050919050565b6000808260000151118015611cef57506021826000015111155b611d2e576040517f08c379a0000000000000000000000000000000000000000000000000000000008152600401611d25906145d3565b60405180910390fd5b6000611d3d836020015161275c565b90506000818460000151039050600080838660200151019050805191506020831015611d7057826020036101000a820491505b81945050505050919050565b60008082600001511415611d935760009050611de4565b600080611da3846020015161275c565b84602001510190506000846000015185602001510190505b80821015611ddd57611dcc826126a4565b820191508280600101935050611dbb565b8293505050505b919050565b6060808267ffffffffffffffff81118015611e0357600080fd5b506040519080825280601f01601f191660200182016040528015611e365781602001600182028036833780820191505090505b509050836020018501516020820152836040018501516040820152809150509392505050565b606060006001600284510203905060608167ffffffffffffffff81118015611e8357600080fd5b506040519080825280601f01601f191660200182016040528015611eb65781602001600182028036833780820191505090505b50905083600081518110611ec657fe5b602001015160f81c60f81b81600081518110611ede57fe5b60200101907effffffffffffffffffffffffffffffffffffffffffffffffffffffffffffff1916908160001a9053506000600190505b8451811015611fd357600080611f3f878481518110611f2f57fe5b602001015160f81c60f81b61294c565b9150915081846001600286020381518110611f5657fe5b60200101907effffffffffffffffffffffffffffffffffffffffffffffffffffffffffffff1916908160001a90535080846002850281518110611f9557fe5b60200101907effffffffffffffffffffffffffffffffffffffffffffffffffffffffffffff1916908160001a90535050508080600101915050611f14565b508092505050919050565b6060611fe9826128fe565b612028576040517f08c379a000000000000000000000000000000000000000000000000000000000815260040161201f90614673565b60405180910390fd5b600061203383611d7c565b905060608167ffffffffffffffff8111801561204e57600080fd5b5060405190808252806020026020018201604052801561208857816020015b612075613279565b81526020019060019003908161206d5790505b509050600061209a856020015161275c565b8560200151019050600080600090505b848110156120fb576120bb836126a4565b91506040518060400160405280838152602001848152508482815181106120de57fe5b6020026020010181905250818301925080806001019150506120aa565b5082945050505050919050565b612110613199565b612118613179565b61212961212484611c23565b611c51565b905060005b6121378261267a565b15612207576000811415612164576121566121518361155f565b611cd5565b8360000181815250506121fa565b600181141561218c5761217e6121798361155f565b611cd5565b8360200181815250506121f9565b60028114156121bc576121ae6121a96121a48461155f565b6115ef565b612963565b8360400181815250506121f8565b60038114156121ec576121de6121d96121d48461155f565b6115ef565b612963565b8360600181815250506121f7565b6121f58261155f565b505b5b5b5b808060010191505061212e565b5050919050565b606080600467ffffffffffffffff8111801561222957600080fd5b5060405190808252806020026020018201604052801561225d57816020015b60608152602001906001900390816122485790505b509050606083606001515167ffffffffffffffff8111801561227e57600080fd5b506040519080825280602002602001820160405280156122b257816020015b606081526020019060019003908161229d5790505b50905060005b846060015151811015612309576122e5856060015182815181106122d857fe5b6020026020010151612971565b8282815181106122f157fe5b602002602001018190525080806001019150506122b8565b5061231a846000015160ff1661288b565b8260008151811061232757fe5b602002602001018190525061233f846020015161288b565b8260018151811061234c57fe5b602002602001018190525061236484604001516123af565b8260028151811061237157fe5b60200260200101819052506123858161240f565b8260038151811061239257fe5b60200260200101819052506123a68261240f565b92505050919050565b606080600183511480156123e157506080836000815181106123cd57fe5b602001015160f81c60f81b60f81c60ff1611155b156123ee57829050612406565b6124036123fd84516080612b09565b84612d1b565b90505b80915050919050565b60608061241b83612da5565b905061243261242c825160c0612b09565b82612d1b565b915050919050565b6124426131c7565b61244a613179565b61245b61245684611c23565b611c51565b905060005b6124698261267a565b15612673576000811415612499576124886124838361155f565b611cd5565b60001b836020018181525050612666565b60018114156124c4576124b36124ae8361155f565b611cd5565b60001b836040018181525050612665565b60038114156124ef576124de6124d98361155f565b611cd5565b60001b836080018181525050612664565b600481141561251a576125096125048361155f565b611cd5565b60001b8360a0018181525050612663565b60058114156125455761253461252f8361155f565b611cd5565b60001b8360c0018181525050612662565b600781141561256e5761255f61255a8361155f565b611cd5565b83610100018181525050612661565b6008811415612597576125886125838361155f565b611cd5565b83610120018181525050612660565b60098114156125c0576125b16125ac8361155f565b611cd5565b8361014001818152505061265f565b600a8114156125e9576125da6125d58361155f565b611cd5565b8361016001818152505061265e565b600b811415612612576126036125fe8361155f565b611cd5565b8361018001818152505061265d565b600e8114156126515761262c6126278361155f565b611cd5565b836101e0019067ffffffffffffffff16908167ffffffffffffffff168152505061265c565b61265a8261155f565b505b5b5b5b5b5b5b5b5b5b5b8080600101915050612460565b5050919050565b6000612684613279565b826000015190508060000151816020015101836020015110915050919050565b6000806000835160001a9050608060ff168110156126c55760019150612752565b60b860ff168110156126e2576001608060ff168203019150612751565b60c060ff168110156127125760b78103600185019450806020036101000a85510460018201810193505050612750565b60f860ff1681101561272f57600160c060ff16820301915061274f565b60f78103600185019450806020036101000a855104600182018101935050505b5b5b5b8192505050919050565b600080825160001a9050608060ff1681101561277c5760009150506127e0565b60b860ff168110806127a1575060c060ff1681101580156127a0575060f860ff1681105b5b156127b05760019150506127e0565b60c060ff168110156127d05760018060b80360ff168203019150506127e0565b60018060f80360ff168203019150505b919050565b60008114156127f357612847565b5b602060ff1681106128235782518252602060ff1683019250602060ff1682019150602060ff16810390506127f4565b6000600182602060ff16036101000a03905080198451168184511681811785525050505b505050565b60608060405183741400000000000000000000000000000000000000001860148201526034810160405280915050612883816123af565b915050919050565b606061289e61289983612f01565b6123af565b9050919050565b600060158260000151146128ee576040517f08c379a00000000000000000000000000000000000000000000000000000000081526004016128e590614713565b60405180910390fd5b6128f782611cd5565b9050919050565b600080826000015114156129155760009050612947565b60008083602001519050805160001a915060c060ff168260ff16101561294057600092505050612947565b6001925050505b919050565b6000808260041c91508260041b60041c9050915091565b600060208201519050919050565b606080600367ffffffffffffffff8111801561298c57600080fd5b506040519080825280602002602001820160405280156129c057816020015b60608152602001906001900390816129ab5790505b509050606083602001515167ffffffffffffffff811180156129e157600080fd5b50604051908082528060200260200182016040528015612a1557816020015b6060815260200190600190039081612a005790505b50905060005b846020015151811015612a8b57612a6785602001518281518110612a3b57fe5b6020026020010151604051602001612a5391906144bf565b6040516020818303038152906040526123af565b828281518110612a7357fe5b60200260200101819052508080600101915050612a1b565b50612a99846000015161284c565b82600081518110612aa657fe5b6020026020010181905250612aba8161240f565b82600181518110612ac757fe5b6020026020010181905250612adf84604001516123af565b82600081518110612aec57fe5b6020026020010181905250612b008261240f565b92505050919050565b6060806038841015612bba57600167ffffffffffffffff81118015612b2d57600080fd5b506040519080825280601f01601f191660200182016040528015612b605781602001600182028036833780820191505090505b50905082840160001b601f60208110612b7557fe5b1a60f81b81600081518110612b8657fe5b60200101907effffffffffffffffffffffffffffffffffffffffffffffffffffffffffffff1916908160001a905350612d11565b600080600190505b6000818781612bcd57fe5b0414612be757818060010192505061010081029050612bc2565b6001820167ffffffffffffffff81118015612c0157600080fd5b506040519080825280601f01601f191660200182016040528015612c345781602001600182028036833780820191505090505b50925060378583010160001b601f60208110612c4c57fe5b1a60f81b83600081518110612c5d57fe5b60200101907effffffffffffffffffffffffffffffffffffffffffffffffffffffffffffff1916908160001a905350600190505b818111612d0e576101008183036101000a8781612caa57fe5b0481612cb257fe5b0660001b601f60208110612cc257fe5b1a60f81b838281518110612cd257fe5b60200101907effffffffffffffffffffffffffffffffffffffffffffffffffffffffffffff1916908160001a9053508080600101915050612c91565b50505b8091505092915050565b6060806040519050835180825260208201818101602087015b81831015612d515780518352602083019250602081019050612d34565b50855192508351830184528091508282019050602086015b81831015612d865780518352602083019250602081019050612d69565b50601f19601f8851850115830101166040525050508091505092915050565b6060600082511415612e0457600067ffffffffffffffff81118015612dc957600080fd5b506040519080825280601f01601f191660200182016040528015612dfc5781602001600182028036833780820191505090505b509050612efc565b600080600090505b8351811015612e3b57838181518110612e2157fe5b602002602001015151820191508080600101915050612e0c565b60608267ffffffffffffffff81118015612e5457600080fd5b506040519080825280601f01601f191660200182016040528015612e875781602001600182028036833780820191505090505b5090506000602082019050600092505b8551831015612ef4576060868481518110612eae57fe5b602002602001015190506000602082019050612ecc83828451613088565b878581518110612ed857fe5b6020026020010151518301925050508280600101935050612e97565b819450505050505b919050565b606080602067ffffffffffffffff81118015612f1c57600080fd5b506040519080825280601f01601f191660200182016040528015612f4f5781602001600182028036833780820191505090505b50905082602082015260005b6020811015612fb957600060f81b828281518110612f7557fe5b602001015160f81c60f81b7effffffffffffffffffffffffffffffffffffffffffffffffffffffffffffff191614612fac57612fb9565b8080600101915050612f5b565b60608160200367ffffffffffffffff81118015612fd557600080fd5b506040519080825280601f01601f1916602001820160405280156130085781602001600182028036833780820191505090505b50905060005b815181101561307c5783838060010194508151811061302957fe5b602001015160f81c60f81b82828151811061304057fe5b60200101907effffffffffffffffffffffffffffffffffffffffffffffffffffffffffffff1916908160001a905350808060010191505061300e565b50809350505050919050565b6000839050600083905060008390505b602081106130bb5781518352602083019250602082019150602081039050613098565b60006001826020036101000a0390508019835116818551168181178652505050505050505050565b604051806101200160405280600081526020016000815260200160008152602001600073ffffffffffffffffffffffffffffffffffffffff1681526020016000815260200160608152602001600060ff16815260200160008019168152602001600080191681525090565b6040518060800160405280600060ff1681526020016000815260200160608152602001606081525090565b604051806040016040528061318c613279565b8152602001600081525090565b6040518060800160405280600081526020016000815260200160008019168152602001600080191681525090565b604051806102000160405280600080191681526020016000801916815260200160008019168152602001600073ffffffffffffffffffffffffffffffffffffffff1681526020016000801916815260200160008019168152602001600080191681526020016060815260200160008152602001600081526020016000815260200160008152602001600081526020016060815260200160008019168152602001600067ffffffffffffffff1681525090565b604051806040016040528060008152602001600081525090565b6000813590506132a2816149ca565b92915050565b600082601f8301126132b957600080fd5b81356132cc6132c78261479d565b614770565b915081818352602084019350602081019050838560208402820111156132f157600080fd5b60005b8381101561332157816133078882613413565b8452602084019350602083019250506001810190506132f4565b5050505092915050565b600082601f83011261333c57600080fd5b813561334f61334a826147c5565b614770565b9150818183526020840193506020810190508360005b83811015613395578135860161337b888261343d565b845260208401935060208301925050600181019050613365565b5050505092915050565b600082601f8301126133b057600080fd5b81356133c36133be826147ed565b614770565b9150818183526020840193506020810190508360005b8381101561340957813586016133ef8882613683565b8452602084019350602083019250506001810190506133d9565b5050505092915050565b600081359050613422816149e1565b92915050565b600081519050613437816149e1565b92915050565b600082601f83011261344e57600080fd5b813561346161345c82614815565b614770565b9150808252602083016020830185838301111561347d57600080fd5b61348883828461494e565b50505092915050565b600061020082840312156134a457600080fd5b6134af610200614770565b905060006134bf84828501613413565b60008301525060206134d384828501613413565b60208301525060406134e784828501613413565b60408301525060606134fb84828501613293565b606083015250608061350f84828501613413565b60808301525060a061352384828501613413565b60a08301525060c061353784828501613413565b60c08301525060e082013567ffffffffffffffff81111561355757600080fd5b6135638482850161343d565b60e083015250610100613578848285016138e7565b6101008301525061012061358e848285016138e7565b610120830152506101406135a4848285016138e7565b610140830152506101606135ba848285016138e7565b610160830152506101806135d0848285016138e7565b610180830152506101a082013567ffffffffffffffff8111156135f257600080fd5b6135fe8482850161343d565b6101a0830152506101c061361484828501613413565b6101c0830152506101e061362a848285016138fc565b6101e08301525092915050565b60006060828403121561364957600080fd5b6136536040614770565b90506000613663848285016137f7565b6000830152506040613677848285016138e7565b60208301525092915050565b60006060828403121561369557600080fd5b61369f6060614770565b905060006136af84828501613293565b600083015250602082013567ffffffffffffffff8111156136cf57600080fd5b6136db848285016132a8565b602083015250604082013567ffffffffffffffff8111156136fb57600080fd5b6137078482850161343d565b60408301525092915050565b600060c0828403121561372557600080fd5b61372f60c0614770565b9050600061373f84828501613413565b600083015250602082013567ffffffffffffffff81111561375f57600080fd5b61376b8482850161343d565b602083015250604082013567ffffffffffffffff81111561378b57600080fd5b6137978482850161332b565b60408301525060606137ab848285016138e7565b60608301525060806137bf848285016138e7565b60808301525060a082013567ffffffffffffffff8111156137df57600080fd5b6137eb8482850161343d565b60a08301525092915050565b60006040828403121561380957600080fd5b6138136040614770565b90506000613823848285016138e7565b6000830152506020613837848285016138e7565b60208301525092915050565b60006080828403121561385557600080fd5b61385f6080614770565b9050600061386f84828501613911565b6000830152506020613883848285016138e7565b602083015250604082013567ffffffffffffffff8111156138a357600080fd5b6138af8482850161343d565b604083015250606082013567ffffffffffffffff8111156138cf57600080fd5b6138db8482850161339f565b60608301525092915050565b6000813590506138f6816149f8565b92915050565b60008135905061390b81614a0f565b92915050565b60008135905061392081614a26565b92915050565b60006020828403121561393857600080fd5b600082013567ffffffffffffffff81111561395257600080fd5b61395e8482850161332b565b91505092915050565b60006020828403121561397957600080fd5b600061398784828501613428565b91505092915050565b6000602082840312156139a257600080fd5b600082013567ffffffffffffffff8111156139bc57600080fd5b6139c88482850161343d565b91505092915050565b6000806000606084860312156139e657600080fd5b600084013567ffffffffffffffff811115613a0057600080fd5b613a0c8682870161343d565b935050602084013567ffffffffffffffff811115613a2957600080fd5b613a358682870161343d565b925050604084013567ffffffffffffffff811115613a5257600080fd5b613a5e86828701613713565b9150509250925092565b600060208284031215613a7a57600080fd5b600082013567ffffffffffffffff811115613a9457600080fd5b613aa084828501613491565b91505092915050565b600080600060608486031215613abe57600080fd5b600084013567ffffffffffffffff811115613ad857600080fd5b613ae486828701613491565b935050602084013567ffffffffffffffff811115613b0157600080fd5b613b0d86828701613713565b925050604084013567ffffffffffffffff811115613b2a57600080fd5b613b3686828701613713565b9150509250925092565b60008060008060808587031215613b5657600080fd5b600085013567ffffffffffffffff811115613b7057600080fd5b613b7c87828801613491565b945050602085013567ffffffffffffffff811115613b9957600080fd5b613ba587828801613713565b935050604085013567ffffffffffffffff811115613bc257600080fd5b613bce87828801613713565b9250506060613bdf878288016138e7565b91505092959194509250565b60008060808385031215613bfe57600080fd5b6000613c0c85828601613637565b925050606083013567ffffffffffffffff811115613c2957600080fd5b613c3585828601613713565b9150509250929050565b600060208284031215613c5157600080fd5b600082013567ffffffffffffffff811115613c6b57600080fd5b613c7784828501613713565b91505092915050565b600060208284031215613c9257600080fd5b600082013567ffffffffffffffff811115613cac57600080fd5b613cb884828501613843565b91505092915050565b60008060008060008060008060006101208a8c031215613ce057600080fd5b6000613cee8c828d016138e7565b9950506020613cff8c828d016138e7565b9850506040613d108c828d016138e7565b9750506060613d218c828d016138e7565b9650506080613d328c828d01613293565b95505060a08a013567ffffffffffffffff811115613d4f57600080fd5b613d5b8c828d0161343d565b94505060c0613d6c8c828d01613911565b93505060e0613d7d8c828d01613413565b925050610100613d8f8c828d01613413565b9150509295985092959850929598565b6000613dab8383613e6c565b905092915050565b613dbc816148c3565b82525050565b6000613dcd82614851565b613dd78185614874565b935083602082028501613de985614841565b8060005b85811015613e255784840389528151613e068582613d9f565b9450613e1183614867565b925060208a01995050600181019050613ded565b50829750879550505050505092915050565b613e40816148d5565b82525050565b613e4f816148d5565b82525050565b613e66613e61826148d5565b614990565b82525050565b6000613e778261485c565b613e818185614885565b9350613e9181856020860161495d565b613e9a816149ac565b840191505092915050565b6000613eb08261485c565b613eba8185614896565b9350613eca81856020860161495d565b613ed3816149ac565b840191505092915050565b6000613ee98261485c565b613ef381856148a7565b9350613f0381856020860161495d565b80840191505092915050565b613f188161492a565b82525050565b6000613f2b6026836148b2565b91507f7665726966795472696550726f6f6620726f6f74206e6f64652068617368206960008301527f6e76616c696400000000000000000000000000000000000000000000000000006020830152604082019050919050565b6000613f91601f836148b2565b91507f524c504465636f646572206974657261746f72206973206e6f74206c697374006000830152602082019050919050565b6000613fd16020836148b2565b91507f524c504465636f64657220746f55696e7420696e76616c6964206c656e6774686000830152602082019050919050565b6000614011601f836148b2565b91507f524c504465636f646572206974657261746f7220686173206e6f206e657874006000830152602082019050919050565b60006140516017836148b2565b91507f556e7265676973746572656420626c6f636b20686173680000000000000000006000830152602082019050919050565b6000614091601b836148b2565b91507f4865616465722064617461206f72206861736820696e76616c696400000000006000830152602082019050919050565b60006140d16014836148b2565b91507f7665726966795472696550726f6f6620656c73650000000000000000000000006000830152602082019050919050565b60006141116021836148b2565b91507f524c504465636f646572206974657261746f72206973206e6f742061206c697360008301527f74000000000000000000000000000000000000000000000000000000000000006020830152604082019050919050565b60006141776021836148b2565b91507f5472616e73616374696f6e207265636569707420737461747573206661696c6560008301527f64000000000000000000000000000000000000000000000000000000000000006020830152604082019050919050565b60006141dd6021836148b2565b91507f524c504465636f64657220746f427974657320696e76616c6964206c656e677460008301527f68000000000000000000000000000000000000000000000000000000000000006020830152604082019050919050565b60006142436017836148b2565b91507f57726f6e67207472616e73616374696f6e2076616c75650000000000000000006000830152602082019050919050565b60006142836014836148b2565b91507f7665726966795472696550726f6f66203c2033320000000000000000000000006000830152602082019050919050565b60006142c36023836148b2565b91507f524c504465636f64657220746f4164647265737320696e76616c6964206c656e60008301527f67746800000000000000000000000000000000000000000000000000000000006020830152604082019050919050565b6000610200830160008301516143356000860182613e37565b5060208301516143486020860182613e37565b50604083015161435b6040860182613e37565b50606083015161436e6060860182613db3565b5060808301516143816080860182613e37565b5060a083015161439460a0860182613e37565b5060c08301516143a760c0860182613e37565b5060e083015184820360e08601526143bf8282613e6c565b9150506101008301516143d661010086018261447b565b506101208301516143eb61012086018261447b565b5061014083015161440061014086018261447b565b5061016083015161441561016086018261447b565b5061018083015161442a61018086018261447b565b506101a08301518482036101a08601526144448282613e6c565b9150506101c083015161445b6101c0860182613e37565b506101e08301516144706101e0860182614499565b508091505092915050565b614484816148ff565b82525050565b614493816148ff565b82525050565b6144a281614909565b82525050565b6144b96144b482614909565b61499a565b82525050565b60006144cb8284613e55565b60208201915081905092915050565b60006144e68285613ede565b91506144f28284613ede565b91508190509392505050565b600061450a82846144a8565b60088201915081905092915050565b600060208201905081810360008301526145338184613dc2565b905092915050565b60006020820190506145506000830184613e46565b92915050565b600060208201905081810360008301526145708184613ea5565b905092915050565b600060208201905061458d6000830184613f0f565b92915050565b600060208201905081810360008301526145ac81613f1e565b9050919050565b600060208201905081810360008301526145cc81613f84565b9050919050565b600060208201905081810360008301526145ec81613fc4565b9050919050565b6000602082019050818103600083015261460c81614004565b9050919050565b6000602082019050818103600083015261462c81614044565b9050919050565b6000602082019050818103600083015261464c81614084565b9050919050565b6000602082019050818103600083015261466c816140c4565b9050919050565b6000602082019050818103600083015261468c81614104565b9050919050565b600060208201905081810360008301526146ac8161416a565b9050919050565b600060208201905081810360008301526146cc816141d0565b9050919050565b600060208201905081810360008301526146ec81614236565b9050919050565b6000602082019050818103600083015261470c81614276565b9050919050565b6000602082019050818103600083015261472c816142b6565b9050919050565b6000602082019050818103600083015261474d818461431c565b905092915050565b600060208201905061476a600083018461448a565b92915050565b6000604051905081810181811067ffffffffffffffff8211171561479357600080fd5b8060405250919050565b600067ffffffffffffffff8211156147b457600080fd5b602082029050602081019050919050565b600067ffffffffffffffff8211156147dc57600080fd5b602082029050602081019050919050565b600067ffffffffffffffff82111561480457600080fd5b602082029050602081019050919050565b600067ffffffffffffffff82111561482c57600080fd5b601f19601f8301169050602081019050919050565b6000819050602082019050919050565b600081519050919050565b600081519050919050565b6000602082019050919050565b600082825260208201905092915050565b600082825260208201905092915050565b600082825260208201905092915050565b600081905092915050565b600082825260208201905092915050565b60006148ce826148df565b9050919050565b6000819050919050565b600073ffffffffffffffffffffffffffffffffffffffff82169050919050565b6000819050919050565b600067ffffffffffffffff82169050919050565b600060ff82169050919050565b60006149358261493c565b9050919050565b6000614947826148df565b9050919050565b82818337600083830152505050565b60005b8381101561497b578082015181840152602081019050614960565b8381111561498a576000848401525b50505050565b6000819050919050565b60006149a5826149bd565b9050919050565b6000601f19601f8301169050919050565b60008160c01b9050919050565b6149d3816148c3565b81146149de57600080fd5b50565b6149ea816148d5565b81146149f557600080fd5b50565b614a01816148ff565b8114614a0c57600080fd5b50565b614a1881614909565b8114614a2357600080fd5b50565b614a2f8161491d565b8114614a3a57600080fd5b5056fea26469706673582212205b6e9ef79930e3e9009d3ffb17159decbcb2c56b1c6e6138f5ac19538892ee4164736f6c63430007010033",
  "source": "pragma solidity ^0.7.0;\npragma experimental ABIEncoderV2;\n\nimport \"./RLPEncode.sol\";\nimport \"./RLPDecode.sol\";\nimport \"./EthereumDecoder.sol\";\n\ninterface EthereumClient {\n    function getBlockHash(uint256 height) view external returns (bytes32 hash);\n}\n\ncontract Prover {\n    using RLPDecode for RLPDecode.RLPItem;\n    using RLPDecode for RLPDecode.Iterator;\n\n    struct MerkleProof {\n        bytes32 expectedRoot;\n        bytes key;\n        bytes[] proof;\n        uint256 keyIndex;\n        uint256 proofIndex;\n        bytes expectedValue;\n    }\n\n    EthereumClient public client;\n\n    constructor(address bridgeClient) {\n        client = EthereumClient(bridgeClient);\n    }\n\n    function getSignedTransaction(\n        uint256 nonce,\n        uint256 gasPrice,\n        uint256 gasLimit,\n        uint256 value,\n        address to,\n        bytes memory data,\n        uint8 v,\n        bytes32 r,\n        bytes32 s\n    ) public pure returns (bytes memory signedTransaction) {\n\n    }\n\n    function getTransactionHash(bytes memory signedTransaction) public pure returns (bytes32 hash) {\n        hash = keccak256(signedTransaction);\n    }\n\n    function getBlockRlpData(EthereumDecoder.BlockHeader memory header) public pure returns (bytes memory data) {\n        data = EthereumDecoder.getBlockRlpData(header);\n    }\n\n    function getBlockHash(EthereumDecoder.BlockHeader memory header) public pure returns (bytes32 hash) {\n        return keccak256(getBlockRlpData(header));\n    }\n\n    function getReceiptRlpData(EthereumDecoder.TransactionReceiptTrie memory receipt) public pure returns (bytes memory data) {\n        data = EthereumDecoder.getReceiptRlpData(receipt);\n    }\n\n    function toBlockHeader(bytes memory rlpHeader) public pure returns (EthereumDecoder.BlockHeader memory header)\n    {\n        header = EthereumDecoder.toBlockHeader(rlpHeader);\n    }\n\n    function nthRlpItem(RLPDecode.Iterator memory it, uint256 idx) internal pure returns(RLPDecode.RLPItem memory item) {\n        while(it.hasNext() && idx > 1) {\n            it.next();\n            idx --;\n        }\n        return it.next();\n    }\n\n    function rlp2List(bytes memory data) public pure returns (bytes[] memory decoded)\n    {\n        RLPDecode.RLPItem[] memory list = RLPDecode.toRlpItem(data).toList();\n        bytes[] memory decoded = new bytes[](list.length);\n\n        for (uint256 i = 0; i < list.length; i++) {\n            decoded[i] = list[i].toBytes();\n        }\n        return decoded;\n    }\n\n    function encodeproof(bytes[] memory data) public pure returns (bytes memory encoded) {\n        bytes[] memory list = new bytes[](data.length);\n\n        for (uint256 i = 0; i < data.length; i ++) {\n            list[i] = RLPEncode.encodeBytes(data[i]);\n        }\n        encoded = RLPEncode.encodeList(list);\n    }\n\n    function verifyStorage(\n        EthereumDecoder.BlockHeader memory header,\n        MerkleProof memory accountProof,\n        MerkleProof memory storageProof\n    ) view public returns (bytes memory)\n    {\n        EthereumDecoder.Account memory account = EthereumDecoder.toAccount(accountProof.expectedValue);\n\n        // Check block hash is hash(rlp(blockData))\n        bytes32 blockHash = getBlockHash(header);\n        require(blockHash == header.hash, \"Header data or hash invalid\");\n\n        // Check block hash was registered in light client\n        // bytes32 blockHashClient = client.getBlockHash(header.number);\n        // require(blockHashClient > 0, \"Unregistered block hash\");\n\n        // Check storage root is part of the account\n        // require(storageProof.expectedRoot == account.storageRoot, \"Account storageRoot or storage proof invalid. \");\n        // require(storageProof.expectedRoot == header.storageRoot, \"Account storageRoot or storage proof invalid. \");\n        // check account root\n\n        // TODO meld two verification - they share indexes and header data\n\n        // Check proofs are valid\n        bytes memory a = verifyTrieProof(accountProof);\n        bytes memory b = verifyTrieProof(storageProof);\n        return abi.encodePacked(a, b);\n    }\n\n    function verifyBalance(\n        EthereumDecoder.BlockHeader memory header,\n        MerkleProof memory txdata,\n        MerkleProof memory receiptdata,\n        uint256 value\n    ) view public returns (bytes memory)\n    {\n        EthereumDecoder.Transaction memory transaction = EthereumDecoder.toTransaction(txdata.expectedValue);\n        EthereumDecoder.TransactionReceiptTrie memory receipt = EthereumDecoder.toReceipt(receiptdata.expectedValue);\n\n        // Check block hash is hash(rlp(blockData))\n        bytes32 blockHash = getBlockHash(header);\n        require(blockHash == header.hash, \"Header data or hash invalid\");\n\n        // Check block hash was registered in light client\n        bytes32 blockHashClient = client.getBlockHash(header.number);\n        require(blockHashClient > 0, \"Unregistered block hash\");\n\n        // decode receipt status and check it is true\n        require(receipt.status == 1, \"Transaction receipt status failed\");\n\n        // TODO: check sender sent transaction\n        require(transaction.value == value, \"Wrong transaction value\");\n\n        // TODO meld two verification - they share indexes and header data\n\n        // Check proofs are valid\n        bytes memory a = verifyTrieProof(txdata);\n        bytes memory b = verifyTrieProof(receiptdata);\n        return abi.encodePacked(a, b);\n    }\n\n    function verifyTrieProof(\n        MerkleProof memory data\n    ) pure public returns (bytes memory)\n    {\n        bytes memory node = data.proof[data.proofIndex];\n        RLPDecode.Iterator memory dec = RLPDecode.toRlpItem(node).iterator();\n\n        if (data.keyIndex == 0) {\n            require(keccak256(node) == data.expectedRoot, \"verifyTrieProof root node hash invalid\");\n        }\n        else if (node.length < 32) {\n            bytes32 root = bytes32(dec.next().toUint());\n            require(root == data.expectedRoot, \"verifyTrieProof < 32\");\n        }\n        else {\n            require(keccak256(node) == data.expectedRoot, \"verifyTrieProof else\");\n        }\n\n        uint256 numberItems = RLPDecode.numItems(dec.item);\n\n        // branch\n        if (numberItems == 17) {\n            return verifyTrieProofBranch(data);\n        }\n        // leaf / extension\n        else if (numberItems == 2) {\n            return verifyTrieProofLeafOrExtension(dec, data);\n        }\n\n        if (data.expectedValue.length == 0) return hex'1122';\n        else return hex'0022';\n    }\n\n\n    function verifyTrieProofBranch(\n        MerkleProof memory data\n    ) pure public returns (bytes memory)\n    {\n        bytes memory node = data.proof[data.proofIndex];\n\n        if (data.keyIndex >= data.key.length) {\n            bytes memory item = RLPDecode.toRlpItem(node).toList()[16].toBytes();\n            if (keccak256(item) == keccak256(data.expectedValue)) {\n                return hex'1133';\n            }\n        }\n        else {\n            uint256 index = uint256(uint8(data.key[data.keyIndex]));\n            bytes memory _newExpectedRoot = RLPDecode.toRlpItem(node).toList()[index].toBytes();\n\n            if (!(_newExpectedRoot.length == 0)) {\n                data.expectedRoot = b2b32(_newExpectedRoot);\n                data.keyIndex += 1;\n                data.proofIndex += 1;\n                return verifyTrieProof(data);\n            }\n        }\n\n        if (data.expectedValue.length == 0) return hex'112211';\n        else return hex'002211';\n    }\n\n    function verifyTrieProofLeafOrExtension(\n        RLPDecode.Iterator memory dec,\n        MerkleProof memory data\n    ) pure public returns (bytes memory)\n    {\n        bytes memory nodekey = dec.next().toBytes();\n        bytes memory nodevalue = dec.next().toBytes();\n        uint256 prefix;\n        assembly {\n            let first := shr(248, mload(add(nodekey, 32)))\n            prefix := shr(4, first)\n        }\n\n        if (prefix == 2) {\n            return verifyTrieProofLeafEven(nodekey, nodevalue, data);\n        }\n        else if (prefix == 3) {\n            return verifyTrieProofLeafOdd(nodekey, nodevalue, data);\n        }\n        else if (prefix == 0) {\n            return verifyTrieProofExtensionEven(nodekey, nodevalue, data);\n        }\n        else if (prefix == 1) {\n        }   return verifyTrieProofExtensionOdd(nodekey, nodevalue, data);\n\n        revert(\"Invalid proof\");\n    }\n\n\n    function verifyTrieProofLeafEven(\n        bytes memory nodekey,\n        bytes memory nodevalue,\n        MerkleProof memory data\n    ) pure public returns (bytes memory)\n    {\n        // even leaf node\n        uint256 length = nodekey.length - 1;\n        bytes memory actualKey = slice(nodekey, 33, length);\n        bytes memory restKey = slice(data.key, 32 + data.keyIndex, length);\n\n        if (keccak256(data.expectedValue) == keccak256(nodevalue)) {\n            if (keccak256(actualKey) == keccak256(restKey)) return hex'1144';\n            if (keccak256(expandKeyOdd(actualKey)) == keccak256(restKey)) return hex'1144';\n        }\n\n        if (data.expectedValue.length == 0) return hex'112244';\n        else return hex'002244';\n    }\n\n    function verifyTrieProofLeafOdd(\n        bytes memory nodekey,\n        bytes memory nodevalue,\n        MerkleProof memory data\n    ) pure public returns (bytes memory)\n    {\n        // odd leaf node\n        bytes memory actualKey = new bytes(nodekey.length);\n        bytes memory restKey = new bytes(data.key.length - data.keyIndex);\n        bytes memory key = data.key;\n        uint256 keyIndex = data.keyIndex;\n        assembly {\n            mstore(add(actualKey, 32), shr(4, shl(4, mload(add(nodekey, 32)))))\n            mstore(add(restKey, 32), mload(add(key, add(32, keyIndex))))\n            mstore(add(restKey, 64), mload(add(key, add(64, keyIndex))))\n        }\n\n        if (keccak256(data.expectedValue) == keccak256(nodevalue)) {\n            if (keccak256(actualKey) == keccak256(restKey)) return hex'1155';\n            if (keccak256(expandKeyOdd(actualKey)) == keccak256(restKey)) return hex'1155';\n        }\n        if (data.expectedValue.length == 0) return hex'112255';\n        else return hex'002255';\n    }\n\n    function verifyTrieProofExtensionEven(\n        bytes memory nodekey,\n        bytes memory nodevalue,\n        MerkleProof memory data\n    ) pure public returns (bytes memory)\n    {\n        // even extension node\n        uint256 extensionLength = nodekey.length - 1;\n        bytes memory shared_nibbles = slice(nodekey, 33, extensionLength);\n        bytes memory restKey = slice(data.key, 32 + data.keyIndex, extensionLength);\n\n        if (keccak256(shared_nibbles) == keccak256(restKey)) {\n            data.expectedRoot = b2b32(nodevalue);\n            data.keyIndex += extensionLength;\n            data.proofIndex += 1;\n            return verifyTrieProof(data);\n        }\n        if (data.expectedValue.length == 0) return hex'112266';\n        else return hex'002266';\n    }\n\n    function verifyTrieProofExtensionOdd(\n        bytes memory nodekey,\n        bytes memory nodevalue,\n        MerkleProof memory data\n    ) pure public returns (bytes memory)\n    {\n        // odd extension node\n        uint256 extensionLength = nodekey.length;\n        bytes memory shared_nibbles = new bytes(extensionLength);\n        bytes memory restKey = new bytes(extensionLength);\n\n        bytes memory key = data.key;\n        uint256 keyIndex = data.keyIndex;\n        // uint256 shdelta = 8 * (32 - extensionLength) + 4;\n\n        assembly {\n            mstore(add(shared_nibbles, 32), shr(4, shl(4, mload(add(nodekey, 32)))))\n\n            // mstore(add(shared_nibbles, 32), shl(4, mload(add(nodekey, 32))))\n            mstore(add(restKey, 32), mload(add(key, add(32, keyIndex))))\n\n        }\n\n        if (keccak256(shared_nibbles) == keccak256(restKey)) {\n            data.expectedRoot = b2b32(nodevalue);\n            data.keyIndex += extensionLength;\n            data.proofIndex += 1;\n            return verifyTrieProof(data);\n        }\n        if (data.expectedValue.length == 0) return hex'112277';\n        else return hex'002277';\n    }\n\n    function b2b32(bytes memory data) pure internal returns(bytes32 part) {\n        assembly {\n            part := mload(add(data, 32))\n        }\n    }\n\n    function slice(bytes memory data, uint256 start, uint256 length) pure internal returns(bytes memory) {\n        bytes memory newdata = new bytes(length);\n        // TODO this is used for keys, which are max 64 bytes long when expanded\n        // fixme precision\n        assembly {\n            mstore(add(newdata, 32), mload(add(data, add(32, start))))\n            mstore(add(newdata, 64), mload(add(data, add(64, start))))\n        }\n        return newdata;\n    }\n\n    function getHash(bytes memory data) public pure returns (bytes32 hash) {\n        return keccak256(data);\n    }\n\n    function getNibbles(bytes1 b) internal pure returns (bytes1 nibble1, bytes1 nibble2) {\n        assembly {\n                nibble1 := shr(4, b)\n                nibble2 := shr(4, shl(4, b))\n            }\n    }\n\n    function expandKeyEven(bytes memory data) internal pure returns (bytes memory) {\n        uint256 length = data.length * 2;\n        bytes memory expanded = new bytes(length);\n\n        for (uint256 i = 0 ; i < data.length; i++) {\n            (bytes1 nibble1, bytes1 nibble2) = getNibbles(data[i]);\n            expanded[i * 2] = nibble1;\n            expanded[i * 2 + 1] = nibble2;\n        }\n        return expanded;\n    }\n\n    function expandKeyOdd(bytes memory data) internal pure returns(bytes memory) {\n        uint256 length = data.length * 2 - 1;\n        bytes memory expanded = new bytes(length);\n        expanded[0] = data[0];\n\n        for (uint256 i = 1 ; i < data.length; i++) {\n            (bytes1 nibble1, bytes1 nibble2) = getNibbles(data[i]);\n            expanded[i * 2 - 1] = nibble1;\n            expanded[i * 2] = nibble2;\n        }\n        return expanded;\n    }\n}\n",
  "sourcePath": "/Users/loredana/ETH/statebridge/contracts/contracts/Prover.sol",
  "compiler": {
    "name": "solc",
    "version": "0.7.1+commit.f4a555be.Emscripten.clang"
  },
  "schemaVersion": "3.0.23",
  "updatedAt": "2020-11-21T15:03:59.631Z",
  "devdoc": {
    "kind": "dev",
    "methods": {},
    "version": 1
  },
  "userdoc": {
    "kind": "user",
    "methods": {},
    "version": 1
  }
}